:020000040800F2
:10000000A80D002089010008811000086D1000086B
:100010007D10000847040008C51A00080000000011
:10002000000000000000000000000000B3180008FD
:10003000210E0008000000003317000849190008CD
:10004000A3010008A3010008A3010008A301000800
:10005000A3010008A3010008A3010008A3010008F0
:10006000A3010008A3010008A3010008A3010008E0
:10007000A3010008A3010008A3010008A3010008D0
:10008000A3010008A3010008A3010008A3010008C0
:10009000711A0008A3010008A3010008A3010008C9
:1000A000A3010008A3010008A3010008A3010008A0
:1000B000A3010008A3010008A3010008A301000890
:1000C000A3010008A3010008A3010008A301000880
:1000D000B1180008A3010008A3010008A30100084B
:1000E000A3010008A3010008A301000800F002F822
:1000F00000F03AF80AA090E8000C82448344AAF188
:100100000107DA4501D100F02FF8AFF2090EBAE885
:100110000F0013F0010F18BFFB1A43F0010318473B
:100120000020000020200000103A24BF78C878C1C9
:10013000FAD8520724BF30C830C144BF04680C60ED
:10014000704700000023002400250026103A28BF35
:1001500078C1FBD8520728BF30C148BF0B60704739
:100160001FB51FBD10B510BD00F02FF91146FFF7E8
:10017000F7FF01F069FD00F04DF903B4FFF7F2FF5E
:1001800003BC00F055F900000948804709480047C2
:10019000FEE7FEE7FEE7FEE7FEE7FEE7FEE7FEE737
:1001A000FEE7FEE704480549054A064B7047000094
:1001B0003F040008ED000008A8070020A80D00205B
:1001C000A8090020A809002010B5431C02E010F87F
:1001D000011B71B18107FAD14FF0013202C88C1AAC
:1001E0008C4314EAC211F9D0C01A0A0603D0C01E0B
:1001F00010BDC01A10BD0A0401D0801E10BD090236
:10020000FCD0401E10BD032A40F2308010F0030CD9
:1002100000F0158011F8013BBCF1020F624498BF59
:1002200011F801CB00F8013B38BF11F8013BA2F1F6
:10023000040298BF00F801CB38BF00F8013B11F071
:10024000030300F09080083AC0F0088051F8043BA6
:10025000083A51F804CBA0E80810F5E7121D5CBF7E
:1002600051F8043B40F8043BAFF30080D20724BFB1
:1002700011F8013B11F801CB48BF11F8012B24BF45
:1002800000F8013B00F801CB48BF00F8012B704794
:100290004FF0000200B5134694469646203922BF1F
:1002A000A0E80C50A0E80C50B1F12001BFF4F7AF6A
:1002B000090728BFA0E80C5048BF0CC05DF804EB4C
:1002C000890028BF40F8042B08BF704748BF20F8BA
:1002D000022B11F0804F18BF00F8012B704700006F
:1002E0004FF0013C50F8042B51F8043B9A4221D1C5
:1002F000A2EB0C03934313EACC1317D150F8042B51
:1003000051F8043B9A4215D1A2EB0C03934313EA34
:10031000CC130BD150F8042B51F8043B9A4209D16D
:10032000A2EB0C03934313EACC13DBD04FF0000095
:10033000704700BFD01A01BAB1FA81F101F018017B
:1003400022FA01F0CB40C1F12001DBB2C0B2C01AE9
:100350002CFA01F3D11A914311EAC311E6D1704787
:1003600070477047704710B5203AC0F00B80B1E875
:100370001850203AA0E81850B1E81850A0E81850DA
:10038000BFF4F5AF5FEA027C24BFB1E81850A0E8E3
:10039000185044BF18C918C0BDE810405FEA827CFD
:1003A00024BF51F8043B40F8043B08BF7047D20714
:1003B00028BF31F8023B48BF11F8012B28BF20F8B5
:1003C000023B48BF00F8012B7047754600F02CF83F
:1003D000AE4605006946534620F00700854618B032
:1003E00020B5FFF7DFFEBDE820404FF000064FF0DC
:1003F00000074FF000084FF0000B21F00701AC465A
:10040000ACE8C009ACE8C009ACE8C009ACE8C00978
:100410008D46704710B50446AFF300802046BDE816
:100420001040FFF7AABE00000048704748070020B0
:1004300001491820ABBEFEE726000200704710B548
:1004400001F038FA10BD00BFFEE700001CB51248ED
:1004500000F0C8FE142010490870002048700120E8
:1004600088700020C8700D490B48C16000F096FEEE
:100470000220EE21BB234202CDE9001008490948C1
:1004800001F03BFD0848074948620349091D05483A
:1004900001F0D0FB1CBD00000C030020AD040008DF
:1004A00048030020200300207110000870B50446A6
:1004B0000D462A462146024800F026FE70BD000087
:1004C0000C03002010B504462146012000F00EF870
:1004D00010BD10B5012000F071F910BD10B5044633
:1004E0002146012000F0EAF910BD00007FB5064664
:1004F0000C46A07820B9607910B9FD2004B070BD19
:10050000A078012833D16079012830D100252BE073
:10051000A84800EB05108078012823D1A54800EBFE
:100520000510407901281DD1A24800EB0510007884
:100530002178884216D19F4800EB051040786178F9
:1005400088420FD19B4800EB0510C078E1788842C3
:1005500008D1984800EB051000792179884201D133
:10056000FE20CBE7681CC5B21C2DD1DB4CE0A07887
:10057000012823D1607908BB00251CE08D4800EBE1
:1005800005108078012814D18A4800EB05104079C5
:1005900078B9884800EB051000782178884208D1A6
:1005A000844800EB051040786178884201D1FE2034
:1005B000A4E7681CC5B21C2DE0DB25E0A07818BBC1
:1005C0006079012820D100251CE07A4800EB051055
:1005D0008078A8B9774800EB0510407901280FD141
:1005E000744800EB0510C078E178884208D1714862
:1005F00000EB051000792179884201D1FE207DE7CA
:10060000681CC5B21C2DE0DB00250CE0694800EB3E
:100610000510807828B9674800EB0510407900B9CB
:1006200003E0681CC5B21C2DF0DB00BF1C2D01DBF4
:10063000FF2063E78DF80A5000208DF80B000120A1
:100640008DF80C00F6BB207800F00F004FF420412D
:1006500041EA4020617801F00F0140EA4110E17861
:1006600001F00F0140EA41002179C1F3C0010843C4
:10067000ADF800002079042101EB403080B2ADF8E4
:1006800002004FF46040ADF804000620ADF806000B
:10069000A078012806D1BDF804004FF6E0710843A8
:1006A000ADF80400607901284BD1BDF8040040F09A
:1006B0001F00ADF80400BDF8060040F46040ADF83E
:1006C00006003EE0FFE7012E3BD1207800F03F001E
:1006D000710341EAC010617801F0070140EA01109E
:1006E000E178C1F383010843ADF80000E0788007AA
:1006F000000C217901F0070140EAC120001DADF88E
:1007000002004FF46040ADF804000620ADF806008A
:10071000A078012806D1BDF804004FF6F071084317
:10072000ADF80400607901280BD1BDF8040040F059
:100730000F00ADF80400BDF8060040F47840ADF8B5
:1007400006000020ADF8080001208DF80D00684675
:1007500000F0F4F8174901EB0511E068C86015498D
:1007600001EB0511A0688860A078124901EB051122
:10077000887060790F4901EB0511487120780D49A7
:1007800001EB0511087060780A4901EB051148700A
:10079000E078084901EB0511C8702079054901EBA3
:1007A0000511087101220221034800F04BF9284687
:1007B000A4E600004C0000200064004030B585B085
:1007C00005460121092000F0C5FF0121480600F07F
:1007D000B1FF4FF40070ADF8100003208DF8120047
:1007E00018208DF8130004A9314800F04FFB4FF496
:1007F0008070ADF8100048208DF8130004A92C4833
:1008000000F044FB01214FF4EA1000F0CBFB002084
:100810008DF80A008DF80B008DF80C0001208DF882
:100820000D0000208DF80E0001208DF80F00002033
:100830008DF806005DB98DF8070005208DF80800D9
:1008400000208DF809001220ADF804000DE0012D04
:100850000BD100208DF8070005208DF8080000203E
:100860008DF809000920ADF8040001A9114800F035
:10087000F2F814208DF8000000208DF801008DF8AA
:10088000020001208DF80300684600F0FBFB002405
:1008900009E00020084901EB04118870064901EBCA
:1008A00004114871641C1C2CF3D305B030BD00004A
:1008B000000C0140006400404C0000202DE9F04194
:1008C00007460D464FF00008686820F0E050686069
:1008D000686820F0604068602C4627B9606840F086
:1008E000A050606005E0012F03D1606840F0806097
:1008F0006060042020720020607221460E4800F0E3
:10090000ACF90646042E01D1BDE8F08101E008F102
:1009100001083146084800F033FA012803D040F6B8
:10092000FF708045F3D340F6FF70804501D305206A
:10093000EAE73046E8E700000064004010B5002117
:10094000837A012202FA03F13D4A126842F0010261
:100950003B4B1A603A4A1C3212688A43384B1C33AC
:100960001A60027BCAB9364A0C3212688A43344B89
:100970000C331A604288C38842EA0343304A40324B
:10098000847A42F834300288838842EA03432C4A4E
:100990004032847A02EBC4025360027B012A19D1EF
:1009A000274A0C3212680A43254B0C331A604288DE
:1009B000038842EA0343224A4032847A42F83430C0
:1009C000C288838842EA03431D4A4032847A02EB9C
:1009D000C4025360C27A3AB9194A121D12688A4396
:1009E000174B1B1D1A6006E0154A121D12680A43B8
:1009F000134B1B1D1A60028932B9114A1432126856
:100A00008A430F4B14331A600289012A06D10C4A1B
:100A1000143212680A430A4B14331A60427B012ACB
:100A200006D1074A1C3212680A43054B1C331A6070
:100A3000034A126822F00102014B1A6010BD000047
:100A4000006600401AB143690B43436102E0436909
:100A50008B434361704730B5024600200023146881
:100A600024F002041460146844F00104146000E0EF
:100A70005B1C546804F001041CB94FF6FF74A342D8
:100A8000F6D1546804F001040CB900206CE08C79B4
:100A9000012C04D1146844F08004146003E014684D
:100AA00024F080041460CC79012C04D1146844F043
:100AB0004004146003E0146824F0400414600C7ACD
:100AC000012C04D1146844F02004146003E014687D
:100AD00024F0200414604C7A012C04D1146844F0F2
:100AE0001004146003E0146824F0100414608C7A7D
:100AF000012C04D1146844F00804146003E0146865
:100B000024F008041460CC7A012C04D1146844F059
:100B10000404146003E0146824F0040414608C7866
:100B2000A407CD7844EA05640D7944EA05444D797B
:100B300044EA05540D886D1E2C43D461146824F0DA
:100B400001041460002300E05B1C546804F00104FD
:100B50001CB14FF6FF74A342F6D1546804F00104AF
:100B60000CB1002000E0012030BD10B500F5D873B5
:100B700003EB01131B6803F004031372137A53B9D8
:100B800000F5D87303EB01131B6840F2FF7404EA0D
:100B90005353136009E000F5D87303EB01131B688E
:100BA0006FF0604404EAD303536000F5D87303EB9D
:100BB00001131B6803F00203537200F5D87303EBB3
:100BC00001135B6803F00F03937200F5D87303EB16
:100BD00001135B681B0AD37400F5D87303EB011390
:100BE0009B68D37200F5D87303EB01139B681C0A52
:100BF000147300F5D87303EB01139B681C0C54733A
:100C000000F5D87303EB01139B681B0E937300F57B
:100C1000D87303EB0113DB68D37300F5D87303EBD0
:100C20000113DB681C0A147400F5D87303EB01137D
:100C3000DB681C0C547400F5D87303EB0113DB68FC
:100C40001B0E937421B9C36843F02003C36003E013
:100C5000036943F02003036110BD10B50246002074
:100C6000936803F08063B3F1806F00D110E0936864
:100C700003F00063B3F1006F01D1012008E0936835
:100C800003F08053B3F1805F01D1022000E0042023
:100C9000042874D002F5C07303EB00131B6803F043
:100CA000010402F5C07303EB00131C600B7A7BB9DF
:100CB0004B7A0C8843EA445302F5C07404EB0014E9
:100CC0002468234302F5C07404EB0014236010E091
:100CD0000B7A4C6843EAC4034C7A234302F5C07490
:100CE00004EB00142468234302F5C07404EB0014E1
:100CF00023608B7A03F00F038B7202F5C07303EB52
:100D000000135B6823F00F0402F5C07303EB0013BC
:100D10005C6002F5C07303EB00135B688C7A2343BD
:100D200002F5C07404EB001463608B7B1C064B7BE4
:100D300044EA03440B7B44EA0323CC7A234302F5C1
:100D4000C07404EB0014A3608B7C1C064B7C44EA4B
:100D500003440B7C44EA0323CC7B234302F5C07499
:100D600004EB0014E36002F5C07303EB00131B688F
:100D700043F0010402F5C07303EB00131C6010BDC7
:100D800010B50246002321B1012907D002290FD155
:100D900009E090681D4C00EA04030BE090681C4CCD
:100DA00000EA040306E090681A4C00EA040301E03C
:100DB000002300BF00BF184C181BA34216D007DC4D
:100DC00083B16FF08060184470B1022818D111E02F
:100DD000B0F5007F10D0114C204448B1B0F5003F71
:100DE0000ED10BE002230DE000230BE0002309E00D
:100DF000002307E0012305E0012303E0012301E0D4
:100E0000002300BF00BFD8B210BD000003000004E3
:100E10000003000800000310000100080001FFF7B4
:100E2000704710B5044603E04FF47A7000F005F8FF
:100E3000201EA4F10104F7D110BD70B54FF0E025DC
:100E40006D6945434FF47A76B5FBF6F01BE04FF041
:100E5000E025A969B0F5FA7F04D94FF4FA74A0F53A
:100E6000FA7001E00446002000BF4FF0E025AA69B7
:100E7000914201D98B1A04E04FF0E0256D690D44D1
:100E8000AB1AA342F1D30028E1D170BD2DE9F041A6
:100E9000024600250026002000230024002791F8A8
:100EA00003C00CF00F0591F803C00CF0100CBCF15E
:100EB000000F03D091F802C04CEA050591F800C07C
:100EC000BCF1000F31D0146800202BE04FF0010C72
:100ED0000CFA00F3B1F800C00CEA03069E4220D1E0
:100EE00083004FF00F0C0CFA03F7BC4305FA03FC28
:100EF0004CEA040491F803C0BCF1280F06D14FF06E
:100F0000010C0CFA00FCC2F814C00AE091F803C00E
:100F1000BCF1480F05D14FF0010C0CFA00FCC2F8EF
:100F200010C0401C0828D1D31460B1F800C0BCF137
:100F3000FF0F34DD546800202EE000F1080C4FF064
:100F4000010808FA0CF3B1F800C00CEA03069E424F
:100F500021D183004FF00F0C0CFA03F7BC4305FAC4
:100F600003FC4CEA040491F803C0BCF1280F05D13E
:100F700000F1080C08FA0CF8C2F8148091F803C0CC
:100F8000BCF1480F07D100F1080C4FF0010808FA36
:100F90000CF8C2F81080401C0828CED35460BDE87D
:100FA000F0810000F0B50A4600230024002100254E
:100FB00000F00046B6F1004F02D11D4EF16901E08C
:100FC0001B4E7168C0F3034583B200F44016B6F5BA
:100FD000401F08D121F07061154E766826F07066CA
:100FE000134F7E6012E000F48016B6F5801F06D124
:100FF000032606FA05F4A14341F0706106E0460DB0
:10100000360103FA06F6B14341F0706122B1460D94
:10101000360103FA06F6314300F00046B6F1004F00
:1010200002D1034EF16101E0014E7160F0BD00009C
:10103000000001400246002093680B400BB10120E4
:1010400000E0002070474161704701617047000077
:101050000146054A1068884203D2C1F1FF321044AC
:1010600000E0401A704700000000002000BFFEE7CB
:1010700001480068704700000000002000BFFEE744
:101080007047000070B5002100230F22C47804B31C
:10109000154C246804F4E064C4F5E064210AC1F14D
:1010A0000403CA40447804FA03F1847814402143CD
:1010B00009010E4C0678A155047804F01F0501249F
:1010C000AC4005786D11AD0005F1E025C5F8004193
:1010D00009E0047804F01F050124AC40044D0678B3
:1010E000761145F8264070BD0CED00E000E400E00C
:1010F00080E100E002490143024A116070470000AC
:101100000000FA050CED00E0F0B585B006460F468C
:1011100014463178019861F3D020019071780198DC
:1011200061F30A200190B178019861F319500190A0
:10113000F178019861F353400190019820F0FF008D
:10114000019027E0082C0EDD08208DF80A0000250C
:1011500005E039780DF10B0041557F1C6D1C082D01
:10116000F7D3083C0DE0E0B28DF80A00002505E059
:1011700039780DF10B0041557F1C6D1CA542F7D34A
:1011800000246846FFF7AAF9042803DB4FF0FF307C
:1011900005B0F0BD002CD5D10020F9E77FB504469D
:1011A000A0788DF80300E0788DF8040020788DF8A1
:1011B000000060788DF8010001208DF805008DF8A1
:1011C00002000748039002946846FFF77BF9054642
:1011D0001C2D03DB4FF0FF3004B070BD0020FBE797
:1011E000E31C000810B5044614212046FFF750F810
:1011F00010BD000006490160064941600649816052
:10120000C1600349016105494161FA2101837047C9
:1012100085130008811300087F13000821120008BD
:10122000002001E0411CC8B2A828FBDB704710B5C4
:101230000446A06880470120216888470120216971
:10124000884710BD70B5044608260025E068804731
:1012500001202168884700202169884712E068063C
:10126000050E6069804701202169884760698047D1
:101270006068804708B145F0010500202169884772
:1012800060698047301EA6F10101CEB2E7D1284641
:1012900070BD70B504460D46002021698847A068DE
:1012A00080470DB9012200E00022104621688847DE
:1012B0006069804701202169884760698047002074
:1012C00021698847606980470020216888476069F4
:1012D000804770BD70B504460D460826A06880475B
:1012E00000202169884716E0C5F3C01021688847AF
:1012F0006806050E6069804701202169884760699A
:101300008047002021698847606980470020216864
:10131000884760698047301EA6F10101CEB2E3D153
:1013200070BD10B50446A068804701202168884739
:10133000012021698847606980470020216888472B
:10134000606980470020216988476069804710BD37
:1013500010B50446A0688047002021688847002017
:101360002169884760698047012021698847606951
:1013700080470120216888476069804710BD704719
:1013800000207047704770B504460025E06880472C
:1013900001202168884760698047012021698847CA
:1013A000606980470CE0681C85B2208BA84207DA90
:1013B000002021698847606980474FF0FF3070BD89
:1013C000606880470028EED12169884760698047BE
:1013D0000020F4E72DE9F74F82B00E469246002731
:1013E000002001900025B0E005EB450006EB8000F1
:1013F00040884FF6FF7101EA400905EB450006EB16
:101400008000878805EB450006EB8000D0F8088057
:1014100005EB450036F82000C0F30E0BBBF1000FC2
:1014200009D0BBF1010F29D0BBF5807F3CD0BBF5C3
:10143000007F78D161E00298FFF773FF09F0FF01A8
:101440000298FFF747FF0298FFF79DFF002412E084
:1014500018F804100298FFF73DFF0298FFF793FF7A
:1014600038B10298FFF774FF4FF0FF3005B0BDE8C8
:10147000F08F601C84B2BC42EADB54E0002410E030
:1014800018F804100298FFF725FF0298FFF77BFF7A
:1014900028B10298FFF75CFF4FF0FF30E6E7601CD1
:1014A00084B2BC42ECDB3EE00298FFF73AFF09F160
:1014B0000100C1B20298FFF70DFF0298FFF763FF2A
:1014C00028B10298FFF744FF4FF0FF30CEE7002429
:1014D00010E00298FFF7B6FE08F80400781EA0425C
:1014E00001DD012000E0002001460298FFF7D1FE57
:1014F000601C84B2BC42ECDB15E0002410E00298D2
:10150000FFF7A0FE08F80400781EA04201DD0120CC
:1015100000E0002001460298FFF7BBFE601C84B289
:10152000BC42ECDB00BF00BF05EB450036F82000F5
:1015300000F4004028B10298FFF70AFF0020019054
:1015400001E001200190681C85B25545FFF64CAFC3
:10155000019810B10298FFF7FBFE002086E72DE905
:10156000FF4F91B083460E46042010903046FEF7A0
:101570002BFE814609F1010016F800A0002412E0BC
:101580005BF8340020B94FF0FF3015B0BDE8F08FA4
:101590000BEBC40148683146FEF7A2FE10B95BF8B8
:1015A000347001E0641CEBE700BF06EB0A00401C4E
:1015B00000F00308C8F10400C11700EB9171891015
:1015C000A0EB810808F1010809F101008044002422
:1015D00037E004EB0900801C305C012808D10AEBDD
:1015E000080000EB8400305806A941F8240027E0E9
:1015F00004EB0900801C305C022809D10AEB0800CA
:1016000000EB84003058304406A941F8240017E06C
:1016100004EB0900801C305C03280ED1109913984C
:10162000084406A941F824000AEB080000EB8400F6
:10163000315810980844109002E04FF0FF30A4E7B2
:10164000641C5445C5DB09F10100305C0B2865D2F0
:10165000DFE800F006090D12171C232C3744530055
:10166000B84705465DE00698B847054659E0DDE90C
:101670000601B847054654E006A807C8B84705461E
:101680004FE006A80FC8B84705464AE00A98009000
:1016900006A80FC8B847054643E0DDE90A01CDE9D1
:1016A000000106A80FC8B84705463AE0DDE90A126E
:1016B0000C98CDE90012029006A80FC8B84705465D
:1016C0002FE0DDE90A23DDE90C10CDE90023CDE9A7
:1016D000021006A80FC8B847054622E0DDE90B2333
:1016E000DDE90D10CDE90123CDE903100A98009042
:1016F00006A80FC8B847054613E0DDE90D320F997B
:101700000C98CDE9033205910290DDE90A01CDE99B
:10171000000106A80FC8B847054602E04FF0FF30A9
:1017200033E700BF139805601499109808602846A5
:101730002BE7704729B1064AD2690243044BDA61AC
:1017400004E0034AD2698243014BDA61704700002A
:101750000010024029B1064A92690243044B9A6183
:1017600004E0034A92698243014B9A61704700008A
:101770000010024010B501460022002300204A114B
:10178000012A02D1094C236806E0022A02D1074C43
:10179000236A01E0054C636A01F01F0201249440B2
:1017A0001C400CB1012000E0002010BD00100240E0
:1017B0000248406800F00C00704700000010024032
:1017C00001460020034A506820F0F00008435060B2
:1017D000704700000010024001460020034A506894
:1017E00020F4E060084350607047000000100240A1
:1017F00001460020034A506820F4605040EAC100CE
:1018000050607047001002400149086670470000B0
:101810000000424202460020044B586820F47C102D
:1018200042EA01031843014B586070470010024020
:1018300001460020034A506820F00300084350602E
:10184000704700000010024010B500F043F909484D
:10185000FFF7D0FC084807490861084808600848B5
:101860004860084848610846FFF7E1FC014800F07D
:101870007EFA10BD300000201D1B0008551B00081B
:10188000411B0008C91A000810B504462146024849
:1018900000F078FA10BD00003000002010B50446BA
:1018A0002146024800F0AAFA10BD000030000020D6
:1018B0007047704708B5002000901F48006800F08E
:1018C00002000090009802282FD11C48006840F0C8
:1018D00010001A4908600846006820F003000860FC
:1018E0000846006840F0020008600020FFF768FF2B
:1018F0000020FFF77DFF0020FFF76EFF4FF4E0119F
:101900000020FFF787FF0120FFF77EFF00BF39208F
:10191000FFF730FF0028FAD00220FFF789FF00BF51
:10192000FFF746FF0828FBD101E000BFFEE70448AF
:101930000449086008BD0000001002400020024079
:10194000005125021C00002010B54FF0E020006976
:1019500020F002004FF0E02108611F480068401CA1
:101960001D49086001201D49086000241CE01C4836
:1019700050F8240038B11A4850F82400401E184985
:1019800041F824000FE0174850F8340058B11548CA
:1019900050F83400124941F82400124901EBC40107
:1019A0004868804702E0641C002CE0D000BF0E486D
:1019B0000068401C0C490860142804D3002008600B
:1019C00001200A4908604FF0E020006940F0020061
:1019D0004FF0E021086110BD000000200800002049
:1019E0001000002014000020040000200C00002043
:1019F00070B5002104E00020194A42F83100491C6A
:101A00000029F8D0174800684FF47A73B0FBF3F25E
:101A1000B2F1807F01D301201DE022F07F40401E03
:101A20004FF0E023586158170F23002807DA1C07EE
:101A3000260E0D4C00F00F052D1F665503E01C0708
:101A4000250E0A4C255400BF00204FF0E02398617A
:101A500007201861002008B100BFFEE770BD00003C
:101A6000140000201C00002018ED00E000E400E05D
:101A700000B585B06A4600211048FFF776F89DF85A
:101A800013000F4901EB00108078012806D09DF863
:101A9000130001EB0010407901280CD19DF81300D0
:101AA000074B03EB001081689DF8130003EB001057
:101AB000C2686846904705B000BD00000064004061
:101AC0004C00002000BFFEE710B50A20FFF7B5F973
:101AD00010BD000008B501210420FFF73BFE4FF4C4
:101AE0000070ADF8000010208DF8030003208DF881
:101AF000020069460848FFF7C9F94FF48060ADF865
:101B0000000014208DF8030003208DF802006946C0
:101B10000148FFF7BBF908BD0008014010B50446B5
:101B20002CB94FF400710548FFF78DFA04E04FF42B
:101B300000710248FFF789FA10BD0000000801405B
:101B400010B54FF480610248FFF774FA10BD000031
:101B50000008014010B504462CB94FF480610548D7
:101B6000FFF771FA04E04FF480610248FFF76DFA65
:101B700010BD0000000801403EB52B4C2078032822
:101B80004FD120694078012804D0622803D0C128B1
:101B900030D10FE039E001A8FFF776FE20694078E8
:101BA00040F01001072301AA204600F04DFA002062
:101BB00020703EBD2069811D6B461C4A1C48FFF702
:101BC000CEFC00280ADA2069417800231A46204614
:101BD00000F03AFA00202070401EEAE720694078C1
:101BE00040F01001114A2046009B00F02DFA002021
:101BF0002070DEE72069417800231A46204600F075
:101C000023FA00202070401ED3E700BF20694078EF
:101C100040F0100100231A46204600F015FA00207B
:101C200020700020C5E70000200300200C020020E7
:101C3000DC20000802468868D0610A600148C8605C
:101C400001207047252000084FF4A060FFF752FAEA
:101C5000FFF7CEFEFEF73DFCFFF7F6FDFEF7F6FBC5
:101C600004E0FFF789FF0120FFF7DBF8F9E72DE932
:101C7000F04104460F461546D4E90101401AE168D7
:101C80000844A84201D9284604E0D4E90101401AD9
:101C9000E16808440546D4E90110491E084061681E
:101CA000081AA84201D9284605E0D4E90110491EC6
:101CB00008406168081A0646D4E90121521E114005
:101CC0002268881832463946FEF79DFAAA1BB919D0
:101CD0002068FEF798FAA0682844A0602846BDE86E
:101CE000F0812DE9F04107460E463C463546A8688E
:101CF00028B1A27A04F10B01A868FFF7B8FF2869A0
:101D000028B1A27A04F10B012B6968689847A07A80
:101D1000BDE8F0812DE9F04387B081460E461546B7
:101D20001F468DF80460002404E0395D601C01AAA0
:101D30001154C4B2AC42F8DB0020ADF810003220E0
:101D4000ADF81200681CADF8140001A806904846D2
:101D500000F0A7F8012204A94846FFF73BFB8046A4
:101D6000484600F083F8404607B0BDE8F08338B538
:101D70000446822000906B46012218212046FFF77E
:101D8000C9FF38BD70B58AB005460C4600200390E7
:101D9000ADF810003220ADF812000120ADF81400AB
:101DA00003A806904FF48070ADF81C003221ADF806
:101DB0001E100721ADF8201001A90991022204A9E3
:101DC0002846FFF707FB06469DF8040020709DF8A3
:101DD000050060709DF8060000F07F00A0709DF87F
:101DE0000700E0709DF8080020719DF809006071FF
:101DF0009DF80A00A07130460AB070BD70B586B07B
:101E000005460C4600208DF8040020788DF805006A
:101E100060788DF80600A07840F080008DF807000B
:101E2000E0788DF8080020798DF8090060798DF848
:101E30000A00A0798DF80B000020ADF80C003220CC
:101E4000ADF80E000820ADF8100001A80590284656
:101E500000F027F8012203A92846FFF7BBFA06463F
:101E6000284600F003F8304606B070BD1FB50446A2
:101E70000F208DF8000000208DF801008DF8020081
:101E8000ADF804003220ADF806000320ADF80800DC
:101E9000CDF80CD0012201A92046FFF79BFA04B02F
:101EA00010BD10B588B0044610208DF804008020C5
:101EB0008DF805000002ADF808003220ADF80A00E8
:101EC0000220ADF80C0001A804900F208DF800004E
:101ED00084208DF801000020ADF814003221ADF807
:101EE00016100221ADF81810CDF81CD0022202A95C
:101EF0002046FFF76FFA08B010BD2DE9F047044601
:101F00000D4617469846DDE9089A28212046FEF737
:101F1000BFF905F00306C6F10600C11700EB917189
:101F20008910A0EB8106A819206184F8018084F84B
:101F30000290B81B606000202070E0606061A060CB
:101F4000C4F818A0BDE8F0872DE9F04104460D461D
:101F5000002600276069FFF77BF88046FFF788F8C6
:101F60006061B8F1320F04D92078032801D0002035
:101F70002070207840B96078A84250D101202070AC
:101F8000E060206905704AE02078012817D1D4E983
:101F900003104554E068401CE060E06806283ED32A
:101FA0002069D0F80200A060D4E901010A3881421A
:101FB00002D90020207032E0022020702FE020782B
:101FC00002282CD1D4E903104554E068401CE0609D
:101FD000D4E902010830814221D30027012603E021
:101FE0002069805D4740761CA068801DB042F7D80C
:101FF000A068801D2169085CB8420ED1A068C01D90
:102000002169085CA178884207D103202070206AEA
:1020100028B12046216A884701E0002020702078FE
:10202000BDE8F0812DE9F04180460D4616460024BA
:1020300005E0295D4046FFF787FF0746641CB44270
:10204000F7DB3846BDE8F0812DE9FE4305468846BA
:1020500017461E4668788DF800008DF80180CDF88F
:10206000026006216846EA699047002803DA4FF0CB
:10207000FF30BDE8FE8300208DF80600A8788DF8BB
:102080000700012407E09DF806001DF804104840F1
:102090008DF80600641C062CF5DB002406E09DF894
:1020A0000600395D48408DF80600641CB442F6D342
:1020B00031463846EA699047002802DA4FF0FF308F
:1020C000D7E702210DF10600EA699047002802DAFD
:1020D0004FF0FF30CDE706F10800CAE78918000885
:1020E000F42000089D1800080821000800000000E6
:1020F000000000005344323530585F5254435F5261
:1021000065616444617465005344323530585F52F0
:1021100054435F5772697465446174650000000040
:1021200040210008000000203000000028010008C5
:102130007021000830000020780D000044010008E4
:10214000000000000000000000000000000000008F
:1021500000000000000000000000000000A24A048F
:102160000000000000000000010203040607080947
:04000005080000ED02
:00000001FF
