:020000040800F2
:10000000A006002089010008DD030008D5030008D0
:10001000D90300082F0300081307000800000000A0
:10002000000000000000000000000000F9030008CC
:100030003303000800000000F5030008E504000891
:10004000A3010008A3010008A3010008A301000800
:10005000A3010008A30100089F030008A3010008F2
:10006000A9030008B3030008BD030008A3010008AA
:10007000A3010008A3010008A3010008A3010008D0
:10008000A3010008A3010008A3010008A3010008C0
:10009000A3010008A3010008A3010008A3010008B0
:1000A000A3010008A3010008A3010008A3010008A0
:1000B000A3010008A3010008A3010008A301000890
:1000C000A3010008A3010008A3010008A301000880
:1000D000F70300086D060008A3010008A30100084B
:1000E000A3010008A3010008A301000800F002F822
:1000F00000F03AF80AA090E8000C82448344AAF188
:100100000107DA4501D100F02FF8AFF2090EBAE885
:100110000F0013F0010F18BFFB1A43F0010318473B
:1001200080060000A0060000103A24BF78C878C1FD
:10013000FAD8520724BF30C830C144BF04680C60ED
:10014000704700000023002400250026103A28BF35
:1001500078C1FBD8520728BF30C148BF0B60704739
:100160001FB51FBD10B510BD00F0A8F81146FFF770
:10017000F7FF00F0D0FA00F0C6F803B4FFF7F2FF83
:1001800003BC00F0CDF8000009488047094800474B
:10019000FEE7FEE7FEE7FEE7FEE7FEE7FEE7FEE737
:1001A000FEE7FEE704480549054A064B7047000094
:1001B0000D060008ED000008A0000020A0060020A9
:1001C000A0020020A0020020032A40F2308010F09C
:1001D000030C00F0158011F8013BBCF1020F6244E2
:1001E00098BF11F801CB00F8013B38BF11F8013B73
:1001F000A2F1040298BF00F801CB38BF00F8013B20
:1002000011F0030300F02880083AC0F0088051F88C
:10021000043B083A51F804CBA0E80810F5E7121D9A
:100220005CBF51F8043B40F8043BAFF30080D207B9
:1002300024BF11F8013B11F801CB48BF11F8012B85
:1002400024BF00F8013B00F801CB48BF00F8012BA8
:10025000704770477047704710B5203AC0F00B8068
:10026000B1E81850203AA0E81850B1E81850A0E8BA
:100270001850BFF4F5AF5FEA027C24BFB1E8185014
:10028000A0E8185044BF18C918C0BDE810405FEA84
:10029000827C24BF51F8043B40F8043B08BF704700
:1002A000D20728BF31F8023B48BF11F8012B28BF05
:1002B00020F8023B48BF00F8012B7047754600F05C
:1002C0002BF8AE4605006946534620F007008546E8
:1002D00018B020B5FFF766FFBDE820404FF00006DC
:1002E0004FF000074FF000084FF0000B21F007011E
:1002F000AC46ACE8C009ACE8C009ACE8C009ACE861
:10030000C0098D46704710B50446AFF30080204603
:10031000BDE81040FFF731BF0048704740000020A3
:1003200001491820ABBEFEE726000200704700BF5F
:10033000FEE7704710B5044603E04FF47A7000F012
:1003400005F8201EA4F10104F7D110BD70B54FF0DF
:10035000E0256D6945434FF47A76B5FBF6F01BE076
:100360004FF0E025A969B0F5FA7F04D94FF4FA748B
:10037000A0F5FA7001E00446002000BF4FF0E02530
:10038000AA69914201D98B1A04E04FF0E0256D690A
:100390000D44AB1AA342F1D30028E1D170BD10B5D2
:1003A000012000F011F810BD10B5042000F00CF889
:1003B00010BD10B5082000F007F810BD10B51020D2
:1003C00000F002F810BD000001490860704700000D
:1003D0001404014000BFFEE700BFFEE770470000C5
:1003E00002490143024A1160704700000000FA050B
:1003F0000CED00E070477047704710B500F002F850
:1004000010BD00000CB5002001900090334800683A
:1004100040F480303149086000BF3048006800F483
:10042000003000900198401C0190009818B9019884
:10043000B0F5A06FF1D12948006800F4003010B188
:100440000120009001E0002000900098012843D195
:100450002348006840F01000214908600846006801
:1004600020F0030008600846006840F002000860C1
:100470001A4840681949486008464068486008467C
:10048000406840F4806048600846406820F47C1072
:1004900048600846406840F4E81048600846006834
:1004A00040F08070086000BF0C48006800F00070E9
:1004B0000028F9D00948406820F003000749486047
:1004C0000846406840F00200486000BF03484068AA
:1004D00000F00C000828F9D10CBD0000001002400B
:1004E0000020024010B54FF0E020006920F002002B
:1004F0004FF0E02108611F480068401C1D4908605A
:1005000001201D49086000241CE01C4850F824000C
:1005100038B11A4850F82400401E184941F8240008
:100520000FE0174850F8340058B1154850F834001F
:10053000124941F82400124901EBC4014868804780
:1005400002E0641C002CE0D000BF0E480068401C94
:100550000C490860142804D30020086001200A49CF
:1005600008604FF0E020006940F002004FF0E02109
:10057000086110BD000000200800002010000020CD
:1005800014000020040000200C00002070B50021A1
:1005900004E00020194A42F83100491C0029F8D033
:1005A000174800684FF47A73B0FBF3F2B2F1807F22
:1005B00001D301201DE022F07F40401E4FF0E023D8
:1005C000586158170F23002807DA1C07260E0D4C18
:1005D00000F00F052D1F665503E01C07250E0A4C81
:1005E000255400BF00204FF0E023986107201861D8
:1005F000002008B100BFFEE770BD0000140000201D
:100600001C00002018ED00E000E400E010B51348E5
:10061000006840F001001149086008464068104930
:1006200008400E494860084600680E4908400B49DA
:1006300008600846006820F480200860084640688A
:1006400020F4FE0048604FF41F008860FFF7D5FEDD
:100650004FF000600449086010BD00000010024027
:100660000000FFF8FFFFF6FE08ED00E008B540F2DD
:1006700025510E4800F01EF8B0B10C4800F044F8C7
:10068000C0B200900A48406828B109490122486870
:10069000694600F04BF80648806828B104490868AC
:1006A00001228B686946984708BD00000038014068
:1006B0003000002070B502460024002300250020F1
:1006C00040F66A16B14200D100BFC1F3421501F0F5
:1006D0001F03012606FA03F3012D02D19689334048
:1006E00006E0022D02D1168A334001E0968A33409B
:1006F0000C12012606FA04F41688344013B10CB12A
:10070000012000E0002070BD01468888C0F3080089
:10071000704700BFFEE74FF4A060FFF761FEFFF7F0
:1007200035FF02E00120FFF705FEFBE72DE9F04170
:1007300004460F461546D4E90101401AE168084411
:10074000A84201D9284604E0D4E90101401AE16831
:1007500008440546D4E90110491E08406168081A9A
:10076000A84201D9284605E0D4E90110491E0840F5
:100770006168081A0646D4E90121521E1140226818
:10078000881832463946FFF71FFDAA1BB9192068A1
:10079000FFF71AFDA0682844A0602846BDE8F08154
:1007A000C0070008000000203000000028010008F9
:1007B000F007000830000020700600004401000827
:1007C0000000000000000000000000000000000029
:1007D00000000000000000000000000000A24A0429
:1007E00000000000000000000102030406070809E1
:04000005080000ED02
:00000001FF
