:020000040800F2
:100000007019002091010008E5070008AD070008FD
:10001000E10700080B0400088F0E00080000000034
:10002000000000000000000000000000570A000867
:100030000F040008000000006D080008410B0008D4
:10004000AB010008AB010008AB010008AB010008E0
:10005000AB010008AB0100087B040008AB010008FD
:10006000850400088F04000899040008AB0100080B
:10007000AB010008AB010008AB010008AB010008B0
:10008000AB010008AB010008AB010008AB010008A0
:10009000AB010008AB010008AB010008AB01000890
:1000A000AB010008AB010008AB010008AB01000880
:1000B000AB010008AB010008AB010008AB01000870
:1000C000AB010008AB010008AB010008AB01000860
:1000D0009D090008C90C0008AB010008AB0100082D
:1000E000AB010008AB010008AB01000800F002F80A
:1000F00000F03AF80AA090E8000C82448344AAF188
:100100000107DA4501D100F02FF8AFF2090EBAE885
:100110000F0013F0010F18BFFB1A43F0010318473B
:100120005013000070130000103A24BF78C878C143
:10013000FAD8520724BF30C830C144BF04680C60ED
:10014000704700000023002400250026103A28BF35
:1001500078C1FBD8520728BF30C148BF0B60704739
:100160001FB51FBD10B510BD00F016F91146FFF701
:10017000F7FF00F07DFF00F034F903B4FFF7F2FF62
:1001800003BC00F03BF9000080F3088870470000D2
:100190000948804709480047FEE7FEE7FEE7FEE71B
:1001A000FEE7FEE7FEE7FEE7FEE7FEE70448054957
:1001B000054A064B70470000690C0008ED00000876
:1001C0007013002070190020701500207015002099
:1001D00040EA0103024630B59B0710D14FF00134CD
:1001E00000E008C208C91D1B9D4315EAC41FF8D0D2
:1001F00013F0FF0102F8011B0DD01B0AF8E711F8FC
:10020000013B002B02F8013B05D011F8013B002B0C
:1002100002F8013BF3D130BD10B5431C02E010F8E9
:10022000011B71B18107FAD14FF0013202C88C1A5B
:100230008C4314EAC211F9D0C01A0A0603D0C01EBA
:1002400010BDC01A10BD0A0401D0801E10BD0902E5
:10025000FCD0401E10BD032A40F2308010F0030C89
:1002600000F0158011F8013BBCF1020F624498BF09
:1002700011F801CB00F8013B38BF11F8013BA2F1A6
:10028000040298BF00F801CB38BF00F8013B11F021
:10029000030300F04F80083AC0F0088051F8043B97
:1002A000083A51F804CBA0E80810F5E7121D5CBF2E
:1002B00051F8043B40F8043BAFF30080D20724BF61
:1002C00011F8013B11F801CB48BF11F8012B24BFF5
:1002D00000F8013B00F801CB48BF00F8012B704744
:1002E0004FF0000200B5134694469646203922BFCF
:1002F000A0E80C50A0E80C50B1F12001BFF4F7AF1A
:10030000090728BFA0E80C5048BF0CC05DF804EBFB
:10031000890028BF40F8042B08BF704748BF20F869
:10032000022B11F0804F18BF00F8012B7047704767
:100330007047704710B5203AC0F00B80B1E81850F4
:10034000203AA0E81850B1E81850A0E81850BFF4BF
:10035000F5AF5FEA027C24BFB1E81850A0E818505E
:1003600044BF18C918C0BDE810405FEA827C24BFB2
:1003700051F8043B40F8043B08BF7047D20728BF40
:1003800031F8023B48BF11F8012B28BF20F8023B8F
:1003900048BF00F8012B7047754600F02BF8AE46B9
:1003A00005006946534620F00700854618B020B581
:1003B000FFF7FCFEBDE820404FF000064FF00007BD
:1003C0004FF000084FF0000B21F00701AC46ACE8FD
:1003D000C009ACE8C009ACE8C009ACE8C0098D466A
:1003E000704710B50446AFF300802046BDE81040CA
:1003F000FFF7C3BE004870471013002001491820C2
:10040000ABBEFEE726000200704700BFFEE7704764
:1004100010B5044603E04FF47A7000F005F8201E92
:10042000A4F10104F7D110BD70B54FF0E0256D695E
:1004300045434FF47A76B5FBF6F01BE04FF0E0252C
:10044000A969B0F5FA7F04D94FF4FA74A0F5FA70EF
:1004500001E00446002000BF4FF0E025AA69914268
:1004600001D98B1A04E04FF0E0256D690D44AB1AF9
:10047000A342F1D30028E1D170BD10B5012000F0F6
:1004800011F810BD10B5042000F00CF810BD10B527
:10049000082000F007F810BD10B5102000F002F899
:1004A00010BD0000014908607047000014040140BD
:1004B00008B500F07DF900900C480068009988426A
:1004C00001D1002008BD09480068401C60B900F057
:1004D000B5F8352000F00CF80448009900F078F8E1
:1004E00000F04CF80120EDE700BFFEE7000000201F
:1004F0000149C860704700000020024030B5044642
:1005000004254FF4302000F0A5F80546042D17D13E
:100510000C48006940F002000A490861084644613D
:10052000006940F0400008614FF4302000F092F87C
:1005300005460448006941F6FD710840014908611B
:10054000284630BD0020024004200B49C96801F054
:10055000010109B101200EE00749C96801F0040159
:1005600009B1022007E00449C96801F0100109B18E
:10057000032000E004207047002002400348006987
:1005800040F08000014908617047000000200240EF
:1005900070B504460D460426F00200F05BF80646EE
:1005A000042E11D10948006940F001000749086193
:1005B0002580F00200F04EF806460448006941F636
:1005C000FE71084001490861304670BD00200240BC
:1005D00078B506460C46042500200090E80200F09D
:1005E00039F80546042D24D11348006940F0010074
:1005F000114908613480E80200F02CF80546042D0A
:1006000010D1B01C0090200C00990880E80200F086
:1006100021F805460848006941F6FE710840064980
:10062000086106E00448006941F6FE71084002498D
:100630000861284678BD00000020024002480349B6
:100640004860034848607047230167450020024026
:10065000AB89EFCD00B502460423FFF775FF0346D3
:1006600003E0FFF771FF0346521E012B01D1002A60
:10067000F7D102B90523184600BD2DE9F041024625
:1006800000250026002000230024002791F803C045
:100690000CF00F0591F803C00CF0100CBCF1000F2A
:1006A00003D091F802C04CEA050591F800C0BCF1F6
:1006B000000F31D0146800202BE04FF0010C0CFA31
:1006C00000F3B1F800C00CEA03069E4220D183007B
:1006D0004FF00F0C0CFA03F7BC4305FA03FC4CEA8D
:1006E000040491F803C0BCF1280F06D14FF0010CAF
:1006F0000CFA00FCC2F814C00AE091F803C0BCF187
:10070000480F05D14FF0010C0CFA00FCC2F810C0E4
:10071000401C0828D1D31460B1F800C0BCF1FF0F11
:1007200034DD546800202EE000F1080C4FF0010881
:1007300008FA0CF3B1F800C00CEA03069E4221D17E
:1007400083004FF00F0C0CFA03F7BC4305FA03FCCF
:100750004CEA040491F803C0BCF1280F05D100F164
:10076000080C08FA0CF8C2F8148091F803C0BCF128
:10077000480F07D100F1080C4FF0010808FA0CF8F7
:10078000C2F81080401C0828CED35460BDE8F08128
:100790000146054A1068884203D2C1F1FF32104475
:1007A00000E0401A704700000400002000BFFEE790
:1007B0003EB5002300246D46684600F0D3F80023C0
:1007C00004E0C4EB4410E95C44185B1C0C2BF8DB20
:1007D00020463EBD0148006870470000040000202C
:1007E00000BFFEE77047000070B5002100230F2214
:1007F000C47804B3154C246804F4E064C4F5E064E0
:10080000210AC1F10403CA40447804FA03F1847850
:100810001440214309010E4C0678A155047804F0D8
:100820001F050124AC4005786D11AD0005F1E025F0
:10083000C5F8004109E0047804F01F050124AC402C
:10084000044D0678761145F8264070BD0CED00E0A9
:1008500000E400E080E100E002490143024A116047
:10086000704700000000FA050CED00E07047000042
:1008700029B1064A92690243044B9A6104E0034A93
:1008800092698243014B9A61704700000010024058
:1008900030B500210022002400232D4D6D6805F0A5
:1008A0000C0121B1042905D0082923D105E0294DE7
:1008B000056022E0274D05601FE0254D6D6805F4B9
:1008C0007012234D6D6805F48034022505EB9242C9
:1008D0001CB9214D554305600BE01D4D6D6805F4B5
:1008E00000351DB11C4D5543056002E0194D5543BF
:1008F000056002E0174D056000BF00BF144D6D6834
:1009000005F0F0010909154D6B5C0568DD40456097
:100910000F4D6D6805F4E061090A104D6B5C456888
:10092000DD4085600A4D6D6805F46051C90A0B4DC4
:100930006B5C4568DD40C560054D6D6805F4404160
:10094000890B074D6B5CC568B5FBF3F5056130BDE0
:100950000010024000127A0000093D002000002033
:100960003000002000B50246074800F00FF8906004
:100970000548001D00F00AF810600348083000F038
:1009800005F8506000BD0000A565871901460248C2
:100990000844D0F843027047009078067047000082
:1009A0002DE9F04104460E460027B4F1006F02D352
:1009B0001048844203D34FF0FF30BDE8F081FFF7C9
:1009C0003DFEA4F100684FEA9825B70AC6F3090076
:1009D00000B17F1C07E04FF0006101EB8520FFF7BD
:1009E0008DFD6D1C7F1E002FF5DCFFF7C7FD00207D
:1009F000E3E700000000010870B504460E46154606
:100A0000B4F1006F02D30948844202D34FF0FF30A3
:100A100070BDFFF713FEC5F34F023146204600F0CC
:100A200007F8FFF7ABFD0020F2E700000000010827
:100A30002DE9F04105460E461746002407E036F83A
:100A400014102846FFF7A4FDAD1C601C84B2BC4204
:100A5000F5DBBDE8F081704710B500F001F810BD7E
:100A60000CB50020019000903348006840F48030BD
:100A70003149086000BF3048006800F40030009041
:100A80000198401C0190009818B90198B0F5A06F2A
:100A9000F1D12948006800F4003010B10120009025
:100AA00001E0002000900098012843D1234800680D
:100AB00040F01000214908600846006820F003005B
:100AC00008600846006840F0020008601A48406864
:100AD000194948600846406848600846406840F444
:100AE000806048600846406820F47C1048600846F2
:100AF000406840F4E81048600846006840F08070A4
:100B0000086000BF0C48006800F000700028F9D0B1
:100B10000948406820F003000749486008464068DB
:100B200040F00200486000BF0348406800F00C003D
:100B30000828F9D10CBD000000100240002002403E
:100B400010B54FF0E020006920F002004FF0E021E6
:100B500008611F480068401C1D49086001201D49AC
:100B6000086000241CE01C4850F8240038B11A48E2
:100B700050F82400401E184941F824000FE017489F
:100B800050F8340058B1154850F83400124941F873
:100B90002400124901EBC4014868804702E0641C4C
:100BA000002CE0D000BF0E480068401C0C490860D3
:100BB000142804D30020086001200A4908604FF07F
:100BC000E020006940F002004FF0E021086110BD14
:100BD000040000200C000020140000201800002059
:100BE000080000201000002070B5002104E0002063
:100BF000194A42F83100491C0029F8D0174800680A
:100C00004FF47A73B0FBF3F2B2F1807F01D301208D
:100C10001DE022F07F40401E4FF0E023586158173E
:100C20000F23002807DA1C07260E0D4C00F00F05D5
:100C30002D1F665503E01C07250E0A4C255400BFE6
:100C400000204FF0E023986107201861002008B1D0
:100C500000BFFEE770BD0000180000203400002037
:100C600018ED00E000E400E010B51348006840F023
:100C700001001149086008464068104908400E49C3
:100C80004860084600680E4908400B49086008465D
:100C9000006820F4802008600846406820F4FE00C8
:100CA00048604FF41F008860FFF7D6FE4FF00060E9
:100CB0000449086010BD0000001002400000FFF869
:100CC000FFFFF6FE08ED00E008B540F225510748A9
:100CD00000F01CF848B1054800F0D4F8C0B200900C
:100CE00001226946024800F0D4F808BD00380140EE
:100CF0000013002021B1828942F40052828104E075
:100D000082894DF6FF731A408281704770B50246A2
:100D1000002400230025002040F66A16B14200D1CD
:100D200000BFC1F3421501F01F03012606FA03F3C9
:100D3000012D02D19689334006E0022D02D1168A98
:100D4000334001E0968A33400C12012606FA04F47F
:100D50001688344013B10CB1012000E0002070BDB2
:100D6000F0B50346002400260025002040F66A174F
:100D7000B94200D100BF1846C1F3421401F01F066A
:100D8000012707FA06F5012C01D10C3004E0022CF2
:100D900001D1103000E014301AB107682F4307600A
:100DA00002E00768AF430760F0BD00002DE9F0479F
:100DB00086B005460E460024A24600BFA146002785
:100DC000B08900B100BF2F462C8A4CF6FF7004405A
:100DD000F08804432C82AC894EF6F3100440B088AE
:100DE00031890843718908430443AC81AC8A4FF6CA
:100DF000FF400440B0890443AC8201A8FFF748FDDE
:100E00001F48874202D1DDF810A001E0DDF80CA0F8
:100E1000A88900F4004040B10AEBCA0000EB0A10B8
:100E200031684900B0FBF1F807E00AEBCA0000EBBB
:100E30000A1031688900B0FBF1F86420B8FBF0F0CB
:100E400004012009642101FB1089A88900F40040F5
:100E500040B1322000EBC900B0FBF1F000F0070018
:100E6000044308E0322000EB09106421B0FBF1F0EC
:100E700000F00F0004432C8106B0BDE8F0870000AD
:100E80000038014001468888C0F30800704700BF61
:100E9000FEE770B504460D461646606820B132463E
:100EA0002946606800F01AF9A06820B13246294648
:100EB0002046A3689847002070BD70B504460D46D3
:100EC0001646324629462046E368984770BD000022
:100ED0002DE9F05F044604F190052E692869871D0D
:100EE000287803287ED1707844284FD00CDC412824
:100EF00019D004DC012810D040285AD110E0422833
:100F00001BD0432855D123E0452840D046283FD068
:100F100047283ED061284CD14AE00120206054E0AF
:100F20000120206051E0D7F80090D7F8048008F144
:100F300004014846FFF734FD47E0D7F800A0D7F892
:100F40000480424607F108015046FFF755FD3CE09A
:100F5000707840F0100100231A46284600F0C6F9C8
:100F60001420FFF755FA012080F3138800BF00BF5B
:100F70001D48006800F4E0601C490843001D1A4940
:100F80000860BFF34F8F00BF00BFFEE71DE01CE00D
:100F90001BE004F11000FFF73FF98346707840F042
:100FA00010015B4604F11002284600F09FF90CE0A6
:100FB0000BE0717800231A46284600F097F90020CC
:100FC0002870401EBDE8F09F0CE000BF707840F034
:100FD000100100231A46284600F088F900202870E6
:100FE0007078EFE70020EDE70CED00E00000FA0577
:100FF0002DE9FC4104460F4615461E46DDF82080CB
:101000006660A560FFF7E6FBE060002020604146D7
:1010100004F11000FFF7DCF80220EE21BB234FF4AF
:101020009052CDE9001004F1B80104F1900000F0F5
:1010300099F80549B4200151394604F1900000F0B7
:1010400087F8BDE8FC810000D507000870B50546AB
:101050006C68206805490840B0F1005F04D16668FB
:101060002068FFF791F8B04770BD00000000FE2F28
:1010700008B54FF4A060FFF7EFFBFFF7B5FD4FF4A5
:10108000E12000F097F904460FA0124BC822214638
:1010900000901148FFF7ACFF15E0FFF709FA0E4882
:1010A000FFF716FF0C48006868B90B49C868FFF7DE
:1010B0006FFB09498968884205D90748FFF7C6FFD1
:1010C000012005490860E8E76874682B56312E3026
:1010D0002E30000000800008480000202DE9F0417B
:1010E00004460F461546D4E90101401AE168084458
:1010F000A84201D9284604E0D4E90101401AE16878
:1011000008440546D4E90110491E08406168081AE0
:10111000A84201D9284605E0D4E90110491E08403B
:101120006168081A0646D4E90121521E114022685E
:10113000881832463946FFF78EF8AA1BB91920687D
:10114000FFF789F8A0682844A0602846BDE8F08130
:101150000246D161D0690260014888600120704771
:10116000D11100082DE9F04704460D461746984670
:10117000DDE9089A28212046FFF7B2F805F00306BA
:10118000C6F10600C11700EB91718910A0EB810632
:10119000A819206184F8018084F80290B81B60606F
:1011A00000202070E0606061A060C4F818A0BDE875
:1011B000F08770B506460C46706A80470546A54222
:1011C00003D2C4F1FF30054400E02D1B284670BD5A
:1011D0002DE9F04104460D46164627683246294659
:1011E000384600F071F8BDE8F0812DE9F041044681
:1011F0000D460026002720466169FFF7DAFF80468A
:10120000606A80476061B8F1320F04D92078032802
:1012100001D000202070207840B96078A84250D1D9
:1012200001202070E060206905704AE020780128E4
:1012300017D1D4E903104554E068401CE060E06831
:1012400006283ED32069D0F80200A060D4E901014D
:101250000A38814202D90020207032E0022020703A
:101260002FE0207802282CD1D4E903104554E068FF
:10127000401CE060D4E902010830814221D30027FC
:10128000012603E02069805D4740761CA068801D30
:10129000B042F7D8A068801D2169085CB8420ED121
:1012A000A068C01D2169085CA178884207D103208D
:1012B0002070206A28B12046216A884701E000207A
:1012C00020702078BDE8F0812DE9F04180460D4680
:1012D0001646002405E0295D4046FFF786FF0746D5
:1012E000641CB442F7DB3846BDE8F0812DE9FE43CB
:1012F0000546884617461E4668788DF800008DF82A
:101300000180CDF8026006226946E869FFF7D5FD45
:10131000002803DA4FF0FF30BDE8FE8300208DF88F
:101320000600A8788DF80700012407E09DF8060064
:101330001DF8041048408DF80600641C062CF5DBEF
:10134000002406E09DF80600395D48408DF806004F
:10135000641CB442F6D332463946E869FFF7ADFD66
:10136000002802DA4FF0FF30D6E702220DF1060125
:10137000E869FFF7A2FD002802DA4FF0FF30CBE763
:1013800006F10800C8E7000010B503460CE000BFF6
:101390000748008800F040000028F9D00878044C85
:1013A000241D2080521E491C002AF0DC002010BDA4
:1013B0000038014010B586B004462948002101607C
:1013C00041608160C16027482549C860012144F21D
:1013D0000400FFF74DFA4FF40070ADF8140003203D
:1013E0008DF8160018208DF8170005A91E48FFF784
:1013F00044F94FF48060ADF8140004208DF8170014
:1014000005A91948FFF739F925208DF800000320B8
:101410008DF801008DF8020001208DF80300684668
:10142000FFF7E2F901940020ADF80800ADF80A00DA
:10143000ADF80C00ADF810000C20ADF80E0001A9BD
:101440000A48FFF7B3FC012240F225510748FFF795
:1014500087FC01210548FFF74DFC014806B010BD8F
:1014600000130020891300080008014000380140E3
:101470009014000800000020480000002801000827
:10148000D814000848000020281900004401000872
:10149000FFFFFFFF00000000000000000000000050
:1014A000000000000000000000000000000000003C
:1014B00000000000010203040102030406070809FA
:1014C0000204060800A24A04000000000000000018
:0814D0000102030406070809EC
:04000005080000ED02
:00000001FF
