:020000040800F2
:10000000080C0020AD010008110E0008FB0D0008CF
:100010000D0E0008DD05000895180008000000001E
:10002000000000000000000000000000671600084B
:10003000CD0B000800000000E5140008411700087F
:10004000C7010008C7010008C7010008C701000870
:10005000C7010008C7010008C7010008C701000860
:10006000C7010008C7010008C7010008C701000850
:10007000C7010008C7010008C7010008C701000840
:10008000C7010008C7010008C7010008C701000830
:1000900069180008C7010008C7010008C701000867
:1000A000C7010008C7010008C7010008C701000810
:1000B000C7010008C7010008C7010008C701000800
:1000C000C7010008C7010008C7010008C7010008F0
:1000D00065160008C7010008C7010008C70100082D
:1000E000C7010008C7010008C701000800F002F8B6
:1000F00000F03AF80AA090E8000C82448344AAF188
:100100000107DA4501D100F02FF8AFF2090EBAE885
:100110000F0013F0010F18BFFB1A43F0010318473B
:10012000201E0000401E0000103A24BF78C878C18D
:10013000FAD8520724BF30C830C144BF04680C60ED
:10014000704700000023002400250026103A28BF35
:1001500078C1FBD8520728BF30C148BF0B60704739
:100160001FB51FBD10B510BD00F041F91146FFF7D6
:10017000F7FF01F065FC00F05FF903B4FFF7F2FF51
:1001800003BC00F067F90000F0B5541E03E051F81D
:10019000245020B4641E002CF9DA054616461F468A
:1001A00097E80F00A8470DEB860DF0BD0948804782
:1001B00009480047FEE7FEE7FEE7FEE7FEE7FEE749
:1001C000FEE7FEE7FEE7FEE704480549054A064B61
:1001D0007047000063040008ED00000808060020D6
:1001E000080C0020080800200808002010B5431C57
:1001F00002E010F8011B71B18107FAD14FF0013212
:1002000002C88C1A8C4314EAC211F9D0C01A0A062B
:1002100003D0C01E10BDC01A10BD0A0401D0801E3C
:1002200010BD0902FCD0401E10BD032A40F23080F0
:1002300010F0030C00F0158011F8013BBCF1020F27
:10024000624498BF11F801CB00F8013B38BF11F8A8
:10025000013BA2F1040298BF00F801CB38BF00F8BF
:10026000013B11F0030300F09080083AC0F00880D1
:1002700051F8043B083A51F804CBA0E80810F5E720
:10028000121D5CBF51F8043B40F8043BAFF3008003
:10029000D20724BF11F8013B11F801CB48BF11F878
:1002A000012B24BF00F8013B00F801CB48BF00F848
:1002B000012B70474FF0000200B513469446964656
:1002C000203922BFA0E80C50A0E80C50B1F1200169
:1002D000BFF4F7AF090728BFA0E80C5048BF0CC017
:1002E0005DF804EB890028BF40F8042B08BF704775
:1002F00048BF20F8022B11F0804F18BF00F8012BE7
:10030000704700004FF0013C50F8042B51F8043BBB
:100310009A4221D1A2EB0C03934313EACC1317D1D9
:1003200050F8042B51F8043B9A4215D1A2EB0C0370
:10033000934313EACC130BD150F8042B51F8043B30
:100340009A4209D1A2EB0C03934313EACC13DBD0FE
:100350004FF00000704700BFD01A01BAB1FA81F126
:1003600001F0180122FA01F0CB40C1F12001DBB20B
:10037000C0B2C01A2CFA01F3D11A914311EAC31189
:10038000E6D1704770477047704710B5203AC0F00B
:100390000B80B1E81850203AA0E81850B1E8185086
:1003A000A0E81850BFF4F5AF5FEA027C24BFB1E8C3
:1003B0001850A0E8185044BF18C918C0BDE8104034
:1003C0005FEA827C24BF51F8043B40F8043B08BF3D
:1003D0007047D20728BF31F8023B48BF11F8012B04
:1003E00028BF20F8023B48BF00F8012B7047754634
:1003F00000F02CF8AE4605006946534620F0070091
:10040000854618B020B5FFF7DFFEBDE820404FF06D
:1004100000064FF000074FF000084FF0000B21F0EE
:100420000701AC46ACE8C009ACE8C009ACE8C009BB
:10043000ACE8C0098D46704710B50446AFF30080A4
:100440002046BDE81040FFF798BE00000048704706
:10045000A805002001491820ABBEFEE726000200D7
:10046000704710B501F022F910BD000000B585B04D
:100470000121092001F048F80121480601F034F873
:100480004FF40070ADF8100003208DF81200182012
:100490008DF8130004A9224800F0CEFB4FF48070C1
:1004A000ADF8100048208DF8130004A91C4800F096
:1004B000C3FB01214FF4EA1000F04AFC00208DF844
:1004C0000A008DF80B008DF80C0001208DF80D004E
:1004D00000208DF80E0001208DF80F0000208DF80F
:1004E00006008DF8070005208DF8080000208DF823
:1004F00009000920ADF8040001A90A4800F081F9BB
:1005000014208DF8000000208DF801008DF8020005
:1005100001208DF80300684600F07CFC05B000BDAA
:10052000000C0140006400407FB504460D461646AD
:100530001C2C03DB4FF0FF3004B070BDE0B28DF82F
:100540000A0000208DF80B0001208DF80C004FF6FA
:10055000FF7000EA1540ADF80000A8B240F00400BA
:10056000ADF80200C6F34F30ADF804004FF6FF704F
:1005700000EAC600ADF80600BDF80400ADF80400BE
:10058000BDF8060040F00600ADF806000020ADF80A
:10059000080001208DF80D00684600F0A5F8012242
:1005A0000221024800F024F92046C5E7006400401B
:1005B00010B5FFF75BFF064800F0A0FC05480449B2
:1005C000086005484860084600F0BEFC004810BDC1
:1005D0004C000020610600082905000800BFFEE766
:1005E0001FB50446029820F47C2000F5804002905C
:1005F000029820F46050029001208DF80C000298BF
:1006000020F0FC5000F120600290029820F4E000FD
:10061000029001208DF80D0002A90D4800F097FC12
:100620000220EE21BB234202CDE9001009490A480D
:1006300001F052FB09480849486205490C31064857
:1006400001F040FB0249204600F03CFC1FBD0000C9
:100650005C010020A801002080010020010E00089C
:100660002DE9F04186B0054688461746002625F05C
:100670006040B0F1FE5F01D900BFFEE7142101A880
:10068000FFF718FE3A4641460DF10F00FFF7CDFD8A
:100690000295F8B28DF80E0004208DF80C000020B1
:1006A0008DF80D0001A90F4800F0ADF90446042CA7
:1006B00003D1401F06B0BDE8F08100E0761C214662
:1006C000084800F033FA012803D040F6FF70864254
:1006D000F4D340F6FF70864202D36FF00100E9E7E1
:1006E0002046E7E70064004010B50021837A01222C
:1006F00002FA03F13D4A126842F001023B4B1A60D4
:100700003A4A1C3212688A43384B1C331A60027B07
:10071000CAB9364A0C3212688A43344B0C331A6019
:100720004288C38842EA0343304A4032847A42F81E
:1007300034300288838842EA03432C4A4032847A68
:1007400002EBC4025360027B012A19D1274A0C3202
:1007500012680A43254B0C331A604288038842EA28
:100760000343224A4032847A42F83430C288838874
:1007700042EA03431D4A4032847A02EBC4025360CA
:10078000C27A3AB9194A121D12688A43174B1B1DC7
:100790001A6006E0154A121D12680A43134B1B1D0E
:1007A0001A60028932B9114A143212688A430F4B17
:1007B00014331A600289012A06D10C4A14321268D5
:1007C0000A430A4B14331A60427B012A06D1074AB6
:1007D0001C3212680A43054B1C331A60034A126824
:1007E00022F00102014B1A6010BD000000660040BB
:1007F0001AB143690B43436102E043698B43436190
:10080000704730B5024600200023146824F002042B
:100810001460146844F00104146000E05B1C546828
:1008200004F001041CB94FF6FF74A342F6D15468DA
:1008300004F001040CB900206CE08C79012C04D187
:10084000146844F08004146003E0146824F0800409
:100850001460CC79012C04D1146844F04004146075
:1008600003E0146824F0400414600C7A012C04D1D5
:10087000146844F02004146003E0146824F0200499
:1008800014604C7A012C04D1146844F010041460F4
:1008900003E0146824F0100414608C7A012C04D155
:1008A000146844F00804146003E0146824F0080499
:1008B0001460CC7A012C04D1146844F00404146050
:1008C00003E0146824F0040414608C78A407CD7845
:1008D00044EA05640D7944EA05444D7944EA055437
:1008E0000D886D1E2C43D461146824F0010414603B
:1008F000002300E05B1C546804F001041CB14FF6B7
:10090000FF74A342F6D1546804F001040CB1002036
:1009100000E0012030BD10B500F5D87303EB0113E2
:100920001B6803F004031372137A53B900F5D873EC
:1009300003EB01131B6840F2FF7404EA5353136086
:1009400009E000F5D87303EB01131B686FF06044F6
:1009500004EAD303536000F5D87303EB01131B685B
:1009600003F00203537200F5D87303EB01135B68C5
:1009700003F00F03937200F5D87303EB01135B6868
:100980001B0AD37400F5D87303EB01139B68D37271
:1009900000F5D87303EB01139B681C0A147300F570
:1009A000D87303EB01139B681C0C547300F5D873C8
:1009B00003EB01139B681B0E937300F5D87303EBD5
:1009C0000113DB68D37300F5D87303EB0113DB6805
:1009D0001C0A147400F5D87303EB0113DB681C0CBC
:1009E000547400F5D87303EB0113DB681B0E93748A
:1009F00021B9C36843F02003C36003E0036943F0F7
:100A00002003036110BD10B502460020936803F077
:100A10008063B3F1806F00D110E0936803F000634E
:100A2000B3F1006F01D1012008E0936803F0805317
:100A3000B3F1805F01D1022000E00420042874D0CB
:100A400002F5C07303EB00131B6803F0010402F509
:100A5000C07303EB00131C600B7A7BB94B7A0C88D4
:100A600043EA445302F5C07404EB001424682343A2
:100A700002F5C07404EB0014236010E00B7A4C689C
:100A800043EAC4034C7A234302F5C07404EB001418
:100A90002468234302F5C07404EB001423608B7AAE
:100AA00003F00F038B7202F5C07303EB00135B6856
:100AB00023F00F0402F5C07303EB00135C6002F532
:100AC000C07303EB00135B688C7A234302F5C07498
:100AD00004EB001463608B7B1C064B7B44EA0344ED
:100AE0000B7B44EA0323CC7A234302F5C07404EB66
:100AF0000014A3608B7C1C064B7C44EA03440B7CF3
:100B000044EA0323CC7B234302F5C07404EB0014B6
:100B1000E36002F5C07303EB00131B6843F00104AC
:100B200002F5C07303EB00131C6010BD10B5024644
:100B3000002321B1012907D002290FD109E09068D3
:100B40001D4C00EA04030BE090681C4C00EA04030F
:100B500006E090681A4C00EA040301E0002300BF9D
:100B600000BF184C181BA34216D007DC83B16FF0EE
:100B70008060184470B1022818D111E0B0F5007FF0
:100B800010D0114C204448B1B0F5003F0ED10BE01D
:100B900002230DE000230BE0002309E0002307E01F
:100BA000012305E0012303E0012301E0002300BF4E
:100BB00000BFD8B210BD000003000004000300080D
:100BC00000000310000100080001FFF7704710B596
:100BD000044603E04FF47A7000F005F8201EA4F1FB
:100BE0000104F7D110BD70B54FF0E0256D694543A4
:100BF0004FF47A76B5FBF6F01BE04FF0E025A969DB
:100C0000B0F5FA7F04D94FF4FA74A0F5FA7001E058
:100C10000446002000BF4FF0E025AA69914201D9A7
:100C20008B1A04E04FF0E0256D690D44AB1AA34226
:100C3000F1D30028E1D170BD2DE9F0410246002535
:100C40000026002000230024002791F803C00CF0A8
:100C50000F0591F803C00CF0100CBCF1000F03D08D
:100C600091F802C04CEA050591F800C0BCF1000FF4
:100C700031D0146800202BE04FF0010C0CFA00F387
:100C8000B1F800C00CEA03069E4220D183004FF069
:100C90000F0C0CFA03F7BC4305FA03FC4CEA0404FE
:100CA00091F803C0BCF1280F06D14FF0010C0CFAEB
:100CB00000FCC2F814C00AE091F803C0BCF1480F70
:100CC00005D14FF0010C0CFA00FCC2F810C0401C1A
:100CD0000828D1D31460B1F800C0BCF1FF0F34DD97
:100CE000546800202EE000F1080C4FF0010808FACB
:100CF0000CF3B1F800C00CEA03069E4221D1830038
:100D00004FF00F0C0CFA03F7BC4305FA03FC4CEA56
:100D1000040491F803C0BCF1280F05D100F1080CC0
:100D200008FA0CF8C2F8148091F803C0BCF1480F1F
:100D300007D100F1080C4FF0010808FA0CF8C2F8CE
:100D40001080401C0828CED35460BDE8F08100001C
:100D5000F0B50A46002300240021002500F00046DB
:100D6000B6F1004F02D11D4EF16901E01B4E7168D2
:100D7000C0F3034583B200F44016B6F5401F08D116
:100D800021F07061154E766826F07066134F7E6014
:100D900012E000F48016B6F5801F06D1032606FA8D
:100DA00005F4A14341F0706106E0460D360103FAF7
:100DB00006F6B14341F0706122B1460D360103FAE7
:100DC00006F6314300F00046B6F1004F02D1034E63
:100DD000F16101E0014E7160F0BD000000000140D2
:100DE0000246002093680B400BB1012000E0002078
:100DF0007047416170470161704700BFFEE7000026
:100E000001480068704700000000002000BFFEE7B6
:100E10007047000070B5002100230F22C47804B38E
:100E2000154C246804F4E064C4F5E064210AC1F1BF
:100E30000403CA40447804FA03F18478144021433F
:100E400009010E4C0678A155047804F01F05012411
:100E5000AC4005786D11AD0005F1E025C5F8004105
:100E600009E0047804F01F050124AC40044D067825
:100E7000761145F8264070BD0CED00E000E400E07E
:100E800080E100E002490143024A1160704700001E
:100E90000000FA050CED00E02DE9F04104460E4695
:100EA00017463A463146D4E9013098470546002DA9
:100EB00005DBA068401CA060A068BDE8F081284662
:100EC000FBE7000070B505460C46E86830B100E06D
:100ED000366A306A0028FBD1346200E0EC60002002
:100EE0002062E5610449A1612846D4E90012FFF7B8
:100EF000D3FF002070BD00006916000801460020E5
:100F0000086048608860C860704700002DE9F041C3
:100F100005460E4617469846EC680EE0206880EAC3
:100F2000C600616808400749084028B9424639466A
:100F300004F10C0000F0B0FC246A002CEED100207B
:100F4000BDE8F081F8FFFF0F0146002070471CB597
:100F50000246D1E90004CDE900046946086820F0A2
:100F60000700001D0860086820F0604000F1005094
:100F70000860086810600868C0F302530888C40A53
:100F8000086864F316500860086863F3CD200860B1
:100F90000868C0F3C5530868840B64F3DC5008602C
:100FA000086863F393300860086890604FF0FF3082
:100FB0000860086820F00700801D0860086820F0BD
:100FC000604000F100500860487901281CD0487941
:100FD00040B9086820F4E0000860086820F0FC5080
:100FE000086011E04879022804D1086820F4E00084
:100FF000086009E04879032804D1086820F0FC5013
:10100000086001E000BFFEE7087901281CD00879DC
:1010100040B9086820F460500860086820F47C201B
:10102000086011E00879022804D1086820F46050B3
:10103000086009E00879032804D1086820F47C20BE
:10104000086001E000BFFEE7086820F4FF60086068
:101050000868506000201CBD0649016006494160D7
:1010600006498160C1600349016105494161FA2176
:1010700001837047E9110008E5110008E311000839
:1010800085100008002001E0411CC8B2A828FBDB45
:10109000704710B50446A068804701202168884742
:1010A00001202169884710BD70B504460826002537
:1010B000E06880470120216888470020216988472F
:1010C00012E06806050E60698047012021698847A3
:1010D000606980476068804708B145F001050020DD
:1010E0002169884760698047301EA6F10101CEB2B0
:1010F000E7D1284670BD70B504460D460020216931
:101100008847A06880470DB9012200E00022104600
:1011100021688847606980470120216988476069A4
:101120008047002021698847606980470020216846
:1011300088476069804770BD70B504460D46082633
:10114000A068804700202169884716E0C5F3C010D9
:10115000216888476806050E60698047012021697B
:101160008847606980470020216988476069804717
:1011700000202168884760698047301EA6F1010180
:10118000CEB2E3D170BD10B50446A06880470120FF
:1011900021688847012021698847606980470020CD
:1011A0002168884760698047002021698847606915
:1011B000804710BD10B50446A06880470020216814
:1011C000884700202169884760698047012021699C
:1011D00088476069804701202168884760698047A7
:1011E00010BD704700207047704770B50446002559
:1011F000E0688047012021688847606980470120B6
:1012000021698847606980470CE0681C85B2208BA3
:10121000A84207DA002021698847606980474FF0BB
:10122000FF3070BD606880470028EED12169884793
:10123000606980470020F4E72DE9F74F82B00E4641
:1012400092460027002001900025B0E005EB450004
:1012500006EB800040884FF6FF7101EA400905EB7C
:10126000450006EB8000878805EB450006EB800013
:10127000D0F8088005EB450036F82000C0F30E0BCF
:10128000BBF1000F09D0BBF1010F29D0BBF5807F66
:101290003CD0BBF5007F78D161E00298FFF773FF87
:1012A00009F0FF010298FFF747FF0298FFF79DFF43
:1012B000002412E018F804100298FFF73DFF02988E
:1012C000FFF793FF38B10298FFF774FF4FF0FF303C
:1012D00005B0BDE8F08F601C84B2BC42EADB54E08C
:1012E000002410E018F804100298FFF725FF029878
:1012F000FFF77BFF28B10298FFF75CFF4FF0FF304C
:10130000E6E7601C84B2BC42ECDB3EE00298FFF7EB
:101310003AFF09F10100C1B20298FFF70DFF0298F0
:10132000FFF763FF28B10298FFF744FF4FF0FF304B
:10133000CEE7002410E00298FFF7B6FE08F804009C
:10134000781EA04201DD012000E000200146029845
:10135000FFF7D1FE601C84B2BC42ECDB15E0002438
:1013600010E00298FFF7A0FE08F80400781EA042E3
:1013700001DD012000E0002001460298FFF7BBFEDE
:10138000601C84B2BC42ECDB00BF00BF05EB450033
:1013900036F8200000F4004028B10298FFF70AFF59
:1013A0000020019001E001200190681C85B25545A4
:1013B000FFF64CAF019810B10298FFF7FBFE00203A
:1013C00086E72DE9FF4FC3B080460D4691464FF0AA
:1013D000040A0026B346002001902846FEF706FFC7
:1013E0000746781C285C4290002413E058F834002B
:1013F00020B94FF0FF3047B0BDE8F08F08EBC401D3
:1014000048682946FEF77EFF18B958F834003F9027
:1014100001E0641CEAE700BFB81C42994618304658
:10142000F11706EB91718910A6EB81014191419969
:10143000C1F10400C11700EB91718910A0EB81018B
:101440000E4400243CE0E019801C285C012804D0F4
:10145000E019801C285C042804D106EB840028587D
:101460003E901AE0E019801C285C022805D106EBAA
:101470008400285828443E900FE0E019801C285C26
:10148000032807D109EB0A003E9006EB8400285898
:10149000824402E04FF0FF30ADE7BBF1040F06DA03
:1014A0002AA93E9841F82B000BF1010B07E002AA94
:1014B00001993E9842F821000198401C0190641C5B
:1014C00042988442BFDB2AAB02A9019A3F98FEF7FB
:1014D0005BFE40904098C9F800004698C0F800A014
:1014E000409888E77047000029B1064AD269024354
:1014F000044BDA6104E0034AD2698243014BDA61AA
:10150000704700000010024029B1064A9269024368
:10151000044B9A6104E0034A92698243014B9A6149
:10152000704700000010024010B501460022002361
:1015300000204A11012A02D1094C236806E0022A40
:1015400002D1074C236A01E0054C636A01F01F02D7
:10155000012494401C400CB1012000E0002010BD8B
:10156000001002400248406800F00C007047000084
:101570000010024001460020034A506820F0F000AD
:1015800008435060704700000010024001460020F0
:10159000034A506820F4E060084350607047000040
:1015A0000010024001460020034A506820F46050B9
:1015B00040EAC100506070470010024001490866CF
:1015C000704700000000424202460020044B586869
:1015D00020F47C1042EA01031843014B5860704725
:1015E0000010024001460020034A506820F003002A
:1015F00008435060704700000010024010B500F032
:1016000065F90948FFF728FD0848074908610848B7
:10161000086008484860084848610846FFF739FDF7
:10162000014800F089FA10BD3000002015190008AB
:101630004D19000839190008C118000810B50446F2
:101640002146024800F083FA10BD0000300000205F
:1016500010B504462146024800F0B5FA10BD00005E
:1016600030000020704770472DE9F04106460F46D4
:101670001446A6F10C0513E0082C09DBA968C8087C
:10168000E96908220B6839469847083C083707E0A3
:10169000A968C808E96922460B6839469847241B9F
:1016A000002CE9DC0020BDE8F081000008B5002036
:1016B00000901F48006800F0020000900098022887
:1016C0002FD11C48006840F010001A4908600846F5
:1016D000006820F0030008600846006840F002003F
:1016E00008600020FFF746FF0020FFF75BFF0020A7
:1016F000FFF74CFF4FF4E0110020FFF765FF0120DA
:10170000FFF75CFF00BF3920FFF70EFF0028FAD07B
:101710000220FFF767FF00BFFFF724FF0828FBD177
:1017200001E000BFFEE704480449086008BD00006E
:101730000010024000200240005125021C00002041
:1017400010B54FF0E020006920F002004FF0E021DA
:1017500008611F480068401C1D49086001201D49A0
:10176000086000241CE01C4850F8240038B11A48D6
:1017700050F82400401E184941F824000FE0174893
:1017800050F8340058B1154850F83400124941F867
:101790002400124901EBC4014868804702E0641C40
:1017A000002CE0D000BF0E480068401C0C490860C7
:1017B000142804D30020086001200A4908604FF073
:1017C000E020006940F002004FF0E021086110BD08
:1017D000000000200800002010000020140000205D
:1017E000040000200C00002070B5002104E000205F
:1017F000194A42F83100491C0029F8D017480068FE
:101800004FF47A73B0FBF3F2B2F1807F01D3012081
:101810001DE022F07F40401E4FF0E0235861581732
:101820000F23002807DA1C07260E0D4C00F00F05C9
:101830002D1F665503E01C07250E0A4C255400BFDA
:1018400000204FF0E023986107201861002008B1C4
:1018500000BFFEE770BD0000140000201C00002047
:1018600018ED00E000E400E000B585B06A46002114
:101870000648FFF750F89DF80A300DF10B020448B6
:101880000199FFF743FB05B000BD00000064004074
:101890004C00002000BFFEE770B504460D4616461A
:1018A000606820B132462946606800F0DEF8A06822
:1018B00020B1324629462046A3689847002070BDD3
:1018C00010B50A20FFF78FF910BD000008B50121FF
:1018D0000420FFF719FE4FF40070ADF8000010204F
:1018E0008DF8030003208DF8020069460848FFF7D1
:1018F000A3F94FF48060ADF8000014208DF80300C8
:1019000003208DF8020069460148FFF795F908BDEC
:101910000008014010B504462CB94FF40071054889
:10192000FFF767FA04E04FF400710248FFF763FA2B
:1019300010BD00000008014010B54FF4806102485E
:10194000FFF74EFA10BD00000008014010B5044634
:101950002CB94FF480610548FFF74BFA04E04FF4CF
:1019600080610248FFF747FA10BD000000080140FF
:101970003EB52B4C207803284FD1206940780128B0
:1019800004D0622803D0C12830D10FE039E001A88B
:10199000FFF754FE2069407840F01001072301AAA8
:1019A000204600F05DFA002020703EBD2069811DB8
:1019B0006B461C4A1C48FFF704FD00280ADA206920
:1019C000417800231A46204600F04AFA0020207091
:1019D000401EEAE72069407840F01001114A204695
:1019E000009B00F03DFA00202070DEE7206941787E
:1019F00000231A46204600F033FA00202070401ED3
:101A0000D3E700BF2069407840F0100100231A4658
:101A1000204600F025FA002020700020C5E70000D5
:101A2000800100205C000020FC1E000870B5044608
:101A30000D461646324629462046E368984770BD53
:101A40004FF4A060FFF71EFAFFF7CEFEFFF7D6FDBA
:101A5000FEF7AEFD04462046FEF7C2FD04E0FFF7A8
:101A600087FF0120FFF7B3F8F9E72DE9F0410446BD
:101A70000F461546D4E90101401AE1680844A8421E
:101A800001D9284604E0D4E90101401AE16808447C
:101A90000546D4E90110491E08406168081AA842A9
:101AA00001D9284605E0D4E90110491E08406168C3
:101AB000081A0646D4E90121521E114022688818EE
:101AC00032463946FEF7B1FBAA1BB9192068FEF76A
:101AD000ACFBA0682844A0602846BDE8F0812DE951
:101AE000F04387B081460E4615461F468DF80460C8
:101AF000002404E0395D601C01AA1154C4B2AC4258
:101B0000F8DB0020ADF810003220ADF81200681CA0
:101B1000ADF8140001A80690484600F0A7F801228D
:101B200004A94846FFF788FB8046484600F083F842
:101B3000404607B0BDE8F08338B5044682200090E7
:101B40006B46012218212046FFF7C9FF38BD70B54A
:101B50008AB005460C4600200390ADF810003220F4
:101B6000ADF812000120ADF8140003A806904FF460
:101B70008070ADF81C003221ADF81E100721ADF8C1
:101B8000201001A90991022204A92846FFF754FB5D
:101B900006469DF8040020709DF8050060709DF8D1
:101BA000060000F07F00A0709DF80700E0709DF82F
:101BB000080020719DF8090060719DF80A00A0716D
:101BC00030460AB070BD70B586B005460C460020A0
:101BD0008DF8040020788DF8050060788DF80600F7
:101BE000A07840F080008DF80700E0788DF80800BC
:101BF00020798DF8090060798DF80A00A0798DF8B8
:101C00000B000020ADF80C003220ADF80E000820CB
:101C1000ADF8100001A80590284600F027F8012231
:101C200003A92846FFF708FB0646284600F003F8FC
:101C3000304606B070BD1FB504460F208DF8000079
:101C400000208DF801008DF80200ADF8040032206C
:101C5000ADF806000320ADF80800CDF80CD0012245
:101C600001A92046FFF7E8FA04B010BD10B588B00E
:101C7000044610208DF8040080208DF80500000235
:101C8000ADF808003220ADF80A000220ADF80C00D3
:101C900001A804900F208DF8000084208DF8010029
:101CA0000020ADF814003221ADF816100221ADF875
:101CB0001810CDF81CD0022202A92046FFF7BCFA6A
:101CC00008B010BD0246D161D06902600148886049
:101CD00001207047451D00082DE9F04704460D46D8
:101CE00017469846DDE9089A28212046FEF7E2FAD1
:101CF00005F00306C6F10600C11700EB91718910CB
:101D0000A0EB8106A819206184F8018084F8029074
:101D1000B81B606000202070E0606061A060C4F8C3
:101D200018A0BDE8F08770B506460C46706A80477B
:101D30000546A54203D2C4F1FF30054400E02D1B47
:101D4000284670BD2DE9F04104460D461646276829
:101D500032462946384600F071F8BDE8F0812DE999
:101D6000F04104460D460026002720466169FFF732
:101D7000DAFF8046606A80476061B8F1320F04D9AB
:101D80002078032801D000202070207840B96078A6
:101D9000A84250D101202070E060206905704AE01F
:101DA0002078012817D1D4E903104554E068401C7D
:101DB000E060E06806283ED32069D0F80200A06009
:101DC000D4E901010A38814202D90020207032E0B2
:101DD000022020702FE0207802282CD1D4E90310B3
:101DE0004554E068401CE060D4E9020108308142BB
:101DF00021D30027012603E02069805D4740761C3F
:101E0000A068801DB042F7D8A068801D2169085CD9
:101E1000B8420ED1A068C01D2169085CA178884233
:101E200007D103202070206A28B12046216A884704
:101E300001E0002020702078BDE8F0812DE9F0411C
:101E400080460D461646002405E0295D4046FFF712
:101E500086FF0746641CB442F7DB3846BDE8F081D4
:101E60002DE9FE430546884617461E4668788DF8DC
:101E700000008DF80180CDF8026006226946E8690D
:101E8000FFF7D4FD002803DA4FF0FF30BDE8FE83F2
:101E900000208DF80600A8788DF80700012407E0DF
:101EA0009DF806001DF8041048408DF80600641CDB
:101EB000062CF5DB002406E09DF80600395D48405D
:101EC0008DF80600641CB442F6D332463946E86900
:101ED000FFF7ACFD002802DA4FF0FF30D6E7022210
:101EE0000DF10601E869FFF7A1FD002802DA4FF0C5
:101EF000FF30CBE706F10800C8E700003D160008F8
:101F0000141F000851160008281F000800000000D8
:101F1000000000005344323530585F5254435F5242
:101F200065616444617465005344323530585F52D2
:101F300054435F5772697465446174650000000022
:101F4000601F000800000020300000002801000889
:101F5000901F000830000020D80B0000440100084A
:101F60000000000000000000000000000000000071
:101F700000000000000000000000000000A24A0471
:101F80000000000000000000010203040607080929
:04000005080000ED02
:00000001FF
