:020000040800F2
:10800000D80B0020E981000857A40008CF8200089F
:1080100053A40008FD8E000853AC000800000000C7
:10802000000000000000000000000000D1A60008D1
:1080300005A300080000000057820008BDA7000843
:1080400003820008038200080382000803820008FC
:10805000038200080382000807A3000803820008C7
:1080600011A300081BA3000825A300080382000831
:1080700003820008038200080382000803820008CC
:1080800003820008038200080382000803820008BC
:1080900003820008038200080382000803820008AC
:1080A000038200080382000803820008038200089C
:1080B00003820008D1A80008038200080382000898
:1080C000038200080382000803820008038200087C
:1080D000CFA6000871AA00080382000803820008E6
:1080E000038200080382000803820008038200085C
:1080F000038200080382000803820008038200084C
:1081000003820008CDA6000803820008038200084D
:108110000382000845AA00080382000803820008C1
:10812000038200080382000803820008038200081B
:1081300000F002F800F048F80AA090E8000C824431
:108140008344AAF10107DA4501D100F03DF8AFF20E
:10815000090EBAE80F0013F0010F18BFFB1A43F025
:1081600001031847B04F0000D04F0000103A24BF61
:1081700078C878C1FAD8520724BF30C830C144BF8C
:1081800004680C60704700000023002400250026CE
:10819000103A28BF78C1FBD8520728BF30C148BF6A
:1081A0000B6070471FB500F00DFE04000020002199
:1081B00004F0F2FC401C60600020002104F0D6FCBA
:1081C000E0601FBD10B510BD00F0CEFD1146FFF7F9
:1081D000E9FF00F08EFE00F06BFE03B4FFF7F2FF44
:1081E00003BC00F07FFE00000948804709480047B3
:1081F000FEE7FEE7FEE7FEE7FEE7FEE7FEE7FEE757
:10820000FEE7FEE704480549054A064B70470000B3
:10821000EDA2000831810008D8050020D80B00200D
:10822000D8070020D8070020EFF3108072B67047FF
:1082300080F310887047334A1368012B04D04FF045
:1082400001031360304A1060304A116030484FF02B
:10825000805101607047EFF3108272B629480168BF
:1082600091B14FF0000101602748016829B1EFF397
:10827000098121E9F00F0068016024490968096853
:10828000B1E8F00F81F3098882F310884EF0040EF4
:1082900070471E4908601C494FF0000008601949EA
:1082A0004FF0010008601B484FF47F01D0F8002018
:1082B00041EA0201016016484FF080510160164802
:1082C0000068006880F3088861B662B670471EF0E7
:1082D000040F0CBFEFF30880EFF3098020E9F00FE3
:1082E00040F804ED1EF0040F0CBF80F3088880F303
:1082F000098800B503F06CF95DF804EB4EF0040E4C
:1083000070470000B4000020AC000020B000002046
:1083100004ED00E020ED00E008ED00E00FB41CB536
:10832000084B06AA7B4469460090059800F0FDF8CA
:1083300004460020694600F00BF920461CBC5DF89D
:1083400014FB00002902000000B58DB009900092D6
:108350000B904FF0FF300A9000200C9005487844B5
:108360000690054878446A46079009A800F0BCFAD0
:108370000DB000BDA7050000BF050000032A40F2B4
:10838000308010F0030C00F0158011F8013BBCF1B7
:10839000020F624498BF11F801CB00F8013B38BFCF
:1083A00011F8013BA2F1040298BF00F801CB38BFDD
:1083B00000F8013B11F0030300F02C84083AC0F0F0
:1083C000088051F8043B083A51F804CBA0E80810A3
:1083D000F5E7121D5CBF51F8043B40F8043BAFF3D6
:1083E0000080D20724BF11F8013B11F801CB48BF30
:1083F00011F8012B24BF00F8013B00F801CB48BF66
:1084000000F8012B70474FF000020429C0F01280E1
:1084100010F0030C00F01B80CCF1040CBCF1020F37
:1084200018BF00F8012BA8BF20F8022BA1EB0C010C
:1084300000F00DB85FEAC17C24BF00F8012B00F802
:10844000012B48BF00F8012B70474FF0000200B528
:10845000134694469646203922BFA0E80C50A0E867
:108460000C50B1F12001BFF4F7AF090728BFA0E815
:108470000C5048BF0CC05DF804EB890028BF40F8E1
:10848000042B08BF704748BF20F8022B11F0804F23
:1084900018BF00F8012B70474FF0013C50F8042B37
:1084A00051F8043B9A4221D1A2EB0C03934313EA07
:1084B000CC1317D150F8042B51F8043B9A4215D134
:1084C000A2EB0C03934313EACC130BD150F8042B0B
:1084D00051F8043B9A4209D1A2EB0C03934313EAEF
:1084E000CC13DBD04FF00000704700BFD01A01BAA8
:1084F000B1FA81F101F0180122FA01F0CB40C1F18B
:108500002001DBB2C0B2C01A2CFA01F3D11A914398
:1085100011EAC311E6D170477047704770470000F9
:1085200001694A1C02610878704700B58FB0CDE937
:1085300001310021059105497944CDE90310114627
:10854000684600F0A2FB0FB000BD0000E5FFFFFF92
:108550000A6802F8010B0A6070472DE9FF4F1C46BC
:1085600091464FF0FF3581B000218A468846D4E914
:108570000167A16902986D1C8847216A8346884774
:108580000028F6D1BBF1FF3F0CD0002F26F4C066C7
:108590001ADD700615D5BBF12B0F0AD0BBF12D0FDC
:1085A0000FD104E04FF0FF3005B0BDE8F08F46F486
:1085B0008066A16902986D1C88477F1E8346002F44
:1085C00002DDBBF1300F03D0B9F1000F2AD025E056
:1085D000A1696D1C02987F1E46F400768847002F23
:1085E000834605DDBBF1780F06D0BBF1580F03D0F1
:1085F000B9F1000F10D011E0B9F1000F02D0B9F1BC
:10860000100F0BD1A1696D1C02987F1E26F4007615
:1086100088478346102000E0082081464FEAE97031
:10862000009017E00A20F8E74346AAFB0928DDF886
:1086300000C07F1E03FB098046F4007605F10105AA
:108640000AFB0C0112EB0B0A029841EBEB78A169D3
:1086500088478346002F06DD4946584600F029FB2F
:108660005FEA000BE0D5E16902988847B00502D4C3
:108670006FF0010098E7F00718D1700610D5514649
:10868000700505D50023D1EB030163EB080200E080
:1086900042462068031D23600068C0E9001205E01F
:1086A0002068011D21600068C0E900A828467BE71A
:1086B0002DE9FF5F1D464FF0FF3B91464FF000084C
:1086C0005F46D5E90146A96901987F1C8847296A58
:1086D000824688470028F6D1BAF1FF3F0CD0002E21
:1086E00024F4C06419DD600614D5BAF12B0F09D04B
:1086F000BAF12D0F0ED103E0584604B0BDE8F09F4B
:1087000044F48064A96901987F1C8847761E8246DC
:10871000002E02DDBAF1300F03D0B9F1000F26D0E0
:1087200032E0A969761E01987F1C44F400748847E2
:10873000002E824605DDBAF1780F06D0BAF1580F47
:1087400003D0B9F1000F10D01EE0B9F1000F02D034
:10875000B9F1100F18D1A969761E01987F1C24F475
:10876000007488478246102002E0082000E00A20BA
:10877000814609E0A96908FB0908761E01987F1C5B
:1087800044F4007488478246002E05DD4946504671
:1087900000F08FFA0028EDDAE96901988847A00512
:1087A00002D46FF00100A8E7E00725D1600613D5D9
:1087B000600502D5C8F1000000E0404629680A1DA6
:1087C0002A600968220501D5087015E0220701D545
:1087D000088011E008600FE02868011D296000682A
:1087E000210502D580F8008006E0210702D5A0F817
:1087F000008001E0C0F8008038467EE72DE9FF5F89
:108800004FF000089946144646469169D2E901A7FF
:10881000DDF838B001988847054659EA0B0005D0C5
:1088200009E0A1690198761C88470546216A284617
:1088300088470028F5D1681C03D05FEACA7005D0CC
:1088400015E04FF0FF3004B0BDE8F09F2068011D37
:108850002160D0F800800AE05FEACA7001D108F810
:10886000015BA169761C01987F1E88470546002F91
:108870001ADD681C18D0B9F1000F0DD0E81705EB10
:10888000D060421120F01F0059F822102A1A01204E
:1088900090400142E0D107E0BBF1000FDCD1284657
:1088A000216A88470028D7D0E16901988847BBF141
:1088B000000F07D1002E05DD5FEACA7002D100214A
:1088C00088F80010A068B84203DDBBF1000F03D0A8
:1088D00017B16FF00100B6E73046B4E70268114403
:1088E0001378016018467047D16005497944516199
:1088F00004497944116200211161114600F010BB56
:10890000EDFFFFFF83030000426842B1016811F8E8
:10891000013B23B1521EC0E90012184670470121E5
:10892000C160881E704742685AB1C368016843B984
:1089300083688B4205D0491E521CC0E900120020FA
:1089400070474FF0FF3070472DE9FF4F4FF00008A0
:108950009A461446C146464683B0D2E901B7CDF8DF
:108960000080CDF8048091690498884710990546E5
:108970005AEA010005D009E0A1690498761C8847ED
:108980000546216A284688470028F5D1681C03D08F
:108990005FEACB7005D02AE04FF0FF3007B0BDE8AA
:1089A000F08F2068011D2160D0F800801FE002A830
:1089B0006A46E9B200F09AF9411C07D0801C09D040
:1089C0004FF000095FEACB7007D00AE0E169049834
:1089D00088473EE04FF0010904E0BDF8081028F890
:1089E000021B7F1EA1690498761C88470546002F4C
:1089F0001ADD681C18D0BAF1000F0DD0E81705EB8E
:108A0000D060421120F01F005AF822102A1A0120CB
:108A100090400142CBD107E010980028C7D12846EA
:108A2000216A88470028C2D0E16904988847B9F1D3
:108A3000000F0ED1109830B9002E04DD5FEACB7024
:108A400001D1A8F80000A068B84202DD109818B162
:108A500017B16FF00100A1E730469FE72DE9FF4F06
:108A60004FF000089B461446454683B0D2E9019674
:108A7000CDF80080CDF804809169DDF848A0049815
:108A8000884707465BEA0A0005D009E0A169049817
:108A90006D1C88470746216A384688470028F5D16B
:108AA000781C03D05FEAC97005D01BE04FF0FF309F
:108AB00007B0BDE8F08F2068011D2160D0F800806C
:108AC00010E05FEAC97007D16A464046B9B200F0CB
:108AD0002BF9411C31D08044A1696D1C0498761E8D
:108AE00088470746002E14DD781C12D0BBF1000029
:108AF00007D03B46DDE9101200F0E9F80028E0D18C
:108B000007E0BAF1000FDCD13846216A8847002817
:108B1000D7D0E16904988847BAF1000F06D1002D3B
:108B200004DD5FEAC97001D188F80000A068B04296
:108B300003DDBAF1000F03D016B16FF00100B7E703
:108B40002846B5E72DE9FF5F9B46144600273D46C2
:108B50009169D2E90196DDF840A0019888478046E6
:108B60005BEA0A0005D009E0A16901986D1C8847FD
:108B70008046216A404688470028F5D1B8F1FF3F7A
:108B800003D05FEAC97005D014E04FF0FF3004B0A5
:108B9000BDE8F09F2068011D216007680AE05FEAD8
:108BA000C97001D127F8028BA1696D1C0198761E4E
:108BB00088478046002E15DDB8F1FF3F12D0BBF18B
:108BC000000007D04346DDE90E1200F080F80028CF
:108BD000E5D107E0BAF1000FE1D14046216A8847AC
:108BE0000028DCD0E16901988847BAF1000F05D16F
:108BF000002D03DD5FEAC97000D13880A068B04263
:108C000003DDBAF1000F03D016B16FF00100BEE72B
:108C10002846BCE710B5203AC0F00B80B1E81850E8
:108C2000203AA0E81850B1E81850A0E81850BFF456
:108C3000F5AF5FEA027C24BFB1E81850A0E81850F5
:108C400044BF18C918C0BDE810405FEA827C24BF49
:108C500051F8043B40F8043B08BF7047D20728BFD7
:108C600031F8023B48BF11F8012B28BF20F8023B26
:108C700048BF00F8012B704710B5044600F09AF881
:108C80000068005D00F0010010BD2DE9F0410646CE
:108C90000024D6E90170F5688046304603E041467D
:108CA000B847641C3046A8470028F8D12046BDE8E4
:108CB000F0813A2800D2303820F02002412A01D336
:108CC000A2F13700884201D34FF0FF30704710B552
:108CD00008E030F8024B9C4204D10AB1002010BDDC
:108CE000012010BD491EF4D2104610BD70B51646C5
:108CF0000C46054600F05EF8036893F80101012870
:108D000004D0185D68B101202C8070BDD3F8030138
:108D10003246214603F2031303442846BDE870405F
:108D200018474FF0FF3070BD70B516460C4605462B
:108D300000F040F8036893F80101012806D0FF2CE9
:108D40000FD8185D68B101202C7070BDD3F80701F1
:108D50003246214603F2071303442846BDE870401B
:108D600018474FF0FF3070BD754600F0ABF8AE46C7
:108D700005006946534620F00700854618B020B527
:108D8000FFF740FABDE820404FF000064FF0000723
:108D90004FF000084FF0000B21F00701AC46ACE8A3
:108DA000C009ACE8C009ACE8C009ACE8C0098D4610
:108DB0007047000010B500F005F8001D10BD00BFA1
:108DC000D93D0000004870479405002000487047D6
:108DD000740500202DE9F047814616468AB03348D5
:108DE00078440DC88DE80D0030487844801C03ACF1
:108DF0000DC884E80D0041F69B300844372190FBF4
:108E0000F1F290FBF1F5A5F1800501FB12041B3C8A
:108E100002D56442012000E00020DFF890A08046E7
:108E20000027FA44AAF1BE0A0DE0E00709D0324655
:108E3000684607EB47010AEB810101F00CF98DE868
:108E4000070064107F1C002CEFD1184F7F44AC3F0B
:108E500018E0E80714D007EB04100DF1180A90E8A9
:108E60000E008AE80E00C068F04201D198190890FF
:108E7000324606A903A801F0EEF803AB83E8070029
:108E80006D10641C002DE4D132466946B8F1000F24
:108E900003A802D001F0B7F801E001F0DCF8C9E95D
:108EA0000001C9F808200AB0BDE8F08708430000B7
:108EB00010B50446AFF300802046BDE81040FFF730
:108EC0008CB90000004870477405002010B5FFF70A
:108ED0007DFF006810BD10B50446FFF777FF046002
:108EE00010BD000001491820ABBEFEE726000200BD
:108EF000704710B503F09AFD002010BD00BFFEE7DB
:108F00006874682B312E312E302B4A756C20313429
:108F100020323032302B32303A32353A33332B0074
:108F20002DE9F34F4FF0000A0C4656468DB0012054
:108F30000C9001F10C000B9062690B980121904795
:108F4000051E2DD0252D2CD0216A8847C0B162691D
:108F50000B9801219047216A88470028F7D1626960
:108F6000411E0B98904700E0761CA1690D98884738
:108F7000216A88470028F7D1E1690D988847DBE727
:108F8000A1690D988847A842074601D1761CD3E70E
:108F9000E1690D9888477F1C02D1BAF1000F6FD0AC
:108FA0006BE162690B9800273D46394690472A28B5
:108FB00004D162690B98012190470125DFF8D08226
:108FC00062690B9801219047A0F130010A290AD269
:108FD0004745E5DC07EB870100EB4107303FDFD475
:108FE00045F01005ECE7E90601D46FF000476C2866
:108FF0000AD04C2814D0682815D06A280DD07428BF
:109000001CD07A281AD01DE062690B980121904784
:109010006C2802D045F0040514E045F002050DE08F
:1090200045F020050AE062690B9801219047682805
:1090300002D045F0080505E045F4006562690B982B
:1090400001219047C4E9015765283DD019DC582813
:109050007AD00CDC452837D004DC252826D04128DE
:109060009ED131E046282FD0472899D12CE05B28AB
:1090700077D0612828D063287CD0642823D15AE097
:10908000F6E06F2848D008DC66281DD067281BD082
:10909000692821D06E2816D127E0702845D0732882
:1090A00068D0752847D078280DD14DE0A1690D987A
:1090B0008847252805463FF469AFE1690D98884740
:1090C0006D1C3FF46AAFD8E00D9923466A466FF0F5
:1090D000010003F01EFFC5E045F0400023464FF0BD
:1090E00000026060A80736D43EE0E8077FF447AF8F
:1090F0002068011D21600068290501D506701BE765
:10910000290701D5068017E7A90703D5F117C0E99C
:10911000006111E706600FE745F0400023464FF07D
:1091200008026060A80716D41EE040F60E0125EA8A
:109130000100606016E045F0400023464FF00A024F
:109140006060A80707D40FE045F040006060A80702
:1091500008D5234610220D996FF00100FFF7FDF9A5
:1091600080E007E0102223460D996FF00100FFF721
:109170009FFA77E04FF0000963284F46C8464B46F8
:10918000CB4602D05B2806D038E0E80601D40120A7
:10919000A060012732E06269D4F80CB00B9801217D
:1091A00090475E2807D14FF0010949466269D4F81B
:1091B0000CB00B989047216939B900210A4603ABDE
:1091C00043F82120491C0829FADBD8B3216949B3A7
:1091D00008F1010862690B98012190475D28F4D1DC
:1091E000B9F1000F09D0002003A951F82020D24383
:1091F00041F82020401C0828F7DB03AB2069002839
:1092000020794FEA40701ED05B462246CDF80080A0
:10921000CDE901970D9900286FF0010020DAFFF7E2
:1092200091FC1FE0C11703AA00EBD1614B1121F0A3
:109230001F0102EB8302411A136801208840034397
:109240001360C7E719E00D99224600286FF001006E
:10925000009702DAFFF778FB04E0FFF7CFFA01E0AE
:10926000FFF7FCFB00280ADA401C06D10C9820B15D
:109270004FF0FF300FB0BDE8F08F5046FAE7E90736
:1092800001D10AF1010A064400200C9054E60000C6
:10929000CCCCCC0C2DE9FF4F064689B00878FF28CE
:1092A00006D0491C2D2805D000244FF0000908E005
:1092B00000200CE00124F8E709EB8903491C00EBCE
:1092C00043090878FF28F7D114B1C9F1000081469D
:1092D000107800252C46AA4629462D2801D02B2897
:1092E00004D1521C2D2813D0002082468B461078C2
:1092F000FF280FD04FF0000C0A21521CA5FB01786B
:1093000004FB018105FB0C11C5194BEB0104EEE7D1
:109310000120EAE7002108464FF00000BAF1000FF3
:1093200002D000EB80004008C0F38158B8F1010F73
:1093300001DD4FF0FF380C9809EB000755EA0400F7
:1093400009D04FF0020917F5FA7F0BDA4FEACA701D
:10935000C6E900B012E04FEACA70C6E900B00DB02D
:10936000BDE8F08FB7F5FA7F0DDDF0487844D0E91D
:109370000010C6E9001040EACA707060FFF726FDD1
:10938000C0F80090EBE7391E02DAC8F1000200E0F5
:10939000424600DA794206A8FFF71CFD06AB93E8C7
:1093A000070003AB83E8070044F23E005BEA0401D8
:1093B0000090584604D144F21E012C465D460091AF
:1093C000210C0904014306D10099240444EA154400
:1093D0002D041039009104F07F41014306D100991A
:1093E000240244EA15642D020839009104F070410A
:1093F000014306D10099240144EA15742D01091F87
:10940000009104F04041014306D10099A40044EAD0
:109410009574AD00891E009104F00041084304D109
:1094200000986D196441401E009042466846002F26
:10943000CDE9014503A902DD00F021FE01E000F0C5
:10944000F6FDBAF1000F04460D4601D084F0004449
:1094500040F2FF7724F00040284303D0C4F30A50C1
:10946000B84212D1FFF7B2FCC0F80090C4F30A5022
:10947000B8420AD1AE487844D0E90010C6E90010DD
:1094800004F000410843706069E7C6E9005466E7EC
:109490002DE9FF4F1F464FF0000A4FF0FF384546B9
:1094A00091B0D7E90146CDF83CA0FFF78BFCC0682E
:1094B0000168405C1090B96912986D1C8847396A40
:1094C000814688470028F6D1B9F1FF3F0AD0002E27
:1094D00024F4D06411DDB9F12B0F08D0B9F12D0FB0
:1094E0000BD102E0404615B03AE744F48064B96914
:1094F00012986D1C8847761E8146600504A901D527
:109500002D2000E02B20002E01F1010B0DF1300881
:109510008DF810003FDDB9F1690F08D0B9F1490F9E
:1095200005D0B9F16E0F02D0B9F14E0F1CD13B46F8
:1095300001A8009580E85002DDE912126FF00200E8
:1095400003F0EBFCC11CCED10EE0B96912986D1C82
:10955000884781461398761E44F4007405600F987E
:10956000401C002E0F9016DDB9F1300FEDD0B9F18F
:10957000780F02D0B9F1580F0DD10F9801280AD1F8
:109580003B46CDE90054DDE91212001F029603F0BC
:10959000C2FCC11CA7D1109989453ED144F080047A
:1095A00006E01399681CAAF1010A44F400740860EB
:1095B000B9696D1C1298761E884730288146F0D014
:1095C0002BE01099894505D1200603D4761E44F07E
:1095D000800418E0484601F003FC08B3761E0DF144
:1095E00023018B4544F4007408D2A9F130000BF834
:1095F000010B200607D5AAF1010003E0200602D4E2
:109600000AF101008246A00502D51399681C086082
:10961000B96912986D1C88478146002ED1DC53E051
:10962000002E51DDB9F1650F02D0B9F1450F4BD1D4
:10963000A00549D5B9696D1C1298761E24F44074B2
:109640008847002E81460CDD2B2804D0B9F12D0F60
:1096500007D144F48074B96912986D1C8847761E4E
:109660008146E00501D52D2100E02B2108F8011BE2
:10967000CDF8008021E0761E0DF13901884544F4D3
:1096800000740CD2A9F1300010F0FF0088F800003F
:1096900002D10099884509D908F1010806E0E005E2
:1096A00001D5244801E042F20F708246B969129850
:1096B0006D1C8847814613980560002E04DD4846DE
:1096C00001F08EFB0028D6D1F96912988847FF2057
:1096D00053468BF8000088F8000000200A900B9099
:1096E00004AA0CA90AA8FFF7D5FDA00502D46FF0C3
:1096F0000100F8E614F0240F0AD0E00714D138680E
:10970000DDE90A12031D3B600068C0E900120BE0AE
:109710000AA9684601F0DCFAE00705D13868009A2A
:10972000011D3960006802602846DCE6C43D000087
:10973000BA3C0000F1D8FFFF2DE9FF4F1F464FF064
:109740003C0987B04FF00042DDE9141001F1010837
:10975000DDF858A002EA40500390002005908346AF
:10976000054604460490B969461E08988847AAF140
:10977000010A0290BAF1000F3BDD02982E2815D0A5
:109780001021FFF796FA00282EDB4FF0010B059908
:10979000014317D0B9F1000F0BDB4A46C11700F0A7
:1097A000F5F905430C43A9F1040905E001200490F3
:1097B0000BE008B145F0010501200590049820B99F
:1097C000361D02E0049800B1361FB969089808F107
:1097D00001088847BBF1000FAAF1010A0290C9D025
:1097E0000999C1F80080C5E70298702808D0502870
:1097F00006D0F96908988847BBF1000F14D04FE0F4
:10980000002002900120BBF1000F049009D0B9693B
:10981000089808F101088847AAF10109B9F1000F79
:1098200007DCF969089888476FF001000BB0BDE8C4
:10983000F08F2B2804D02D280CD14FF0FF3004904E
:10984000B969089808F101088847A9F10109B9F137
:10985000000FE6DD411CE4D00A21FFF72AFA0028B8
:10986000DFDB029908F1010801EB810100EB410007
:109870000290B969089888470A21FFF71AFA099AED
:10988000A9F10109B9F1000FC2F8008001DD00283B
:10989000E7DAF969089888470499029800FB01669D
:1098A00055EA040004D004F04041090002D006E06B
:1098B000039898E0A40044EA9574AD00B61E04F045
:1098C0000041080002D16D196441761E159810F010
:1098D000240F03D04FF00B095C4803E04FF0280938
:1098E0006FF07D008246564507DAAAEB06018944EF
:1098F000B9F1410F01DD4FF0410901200021A9F12B
:10990000010200F043F9024628400B46214008437B
:1099100001D0012100E00021501E029143F1FF31EE
:1099200028402140084301D0012000E00020029996
:10993000834651EA0B014FD0002108464FF000004A
:10994000039900F4400039B100EB80004FF440016E
:1099500000EBD07001EA60008015012802DD4FF0B5
:10996000FF3000E013D0401C36D0029860B3BBF14A
:10997000000F0CD14A460120002100F007F92840D1
:109980002140084301D0012000E00020E0B1012087
:109990004A46002100F0FAF8034640190A466141A0
:1099A0002D1A8C4111D3B9F1400F09DD159810F033
:1099B000240F02D0AAF1340603E0AAF1170600E052
:1099C000761C00254FF0004406E05B1E42F1FF329A
:1099D00020EA030521EA0204CAF10100B04206DAD6
:1099E0001B49039808430190002000900EE0039A61
:1099F000C4F3D321E80A0A43164940EA44500A4313
:109A00003146CDE90002684601F0D4F9159810F00E
:109A1000240F0BD01598C00715D13868DDE9001266
:109A2000031D3B600068C0E900120CE002A8694613
:109A300001F04EF91598C00705D13868029A011D4A
:109A40003960006802604046F0E6000002FCFFFF5B
:109A50000000F07F0000F03F2DE9FF4F92461D46C9
:109A600085B04FF00041DDE9124BDDE914727F1E35
:109A700001EA4B50414940F0FF4940EA010800210A
:109A800022F020004928049102D04E2828D04CE032
:109A90003BA0012607C88DE80700A9690698641C49
:109AA00088477F1E014606D41DF8060018B121F034
:109AB000200181420BD0E96906988847032E34D0F3
:109AC000082E32D06FF0010009B0BDE8F08F761C8F
:109AD000032E01D0082EE0D1601CCAF80000DCE79C
:109AE000A9690698641C88477F1E2AD420F02000AC
:109AF000412826D1A9690698641C88477F1E20D476
:109B000020F020004E281CD1A9690698641C8847C3
:109B10007F1E48F4002849F48009CAF8004001D4A7
:109B2000282806D0E969069888475FEACB7012D0EA
:109B300022E0A9690698641C88477F1E01D400288A
:109B400003DAE96906988847BCE72928F1D1641C43
:109B5000CAF80040E9E71BF0240F07D028680499F1
:109B6000031D2B600068C0E9001805E02868021D8D
:109B70002A600068C0F800902046A5E70000F07F4A
:109B8000494E46494E49545900000000B2F12003A5
:109B90000AD5C2F1200301FA02F120FA03F300FA18
:109BA00002F041EA0301704700FA03F14FF00000B0
:109BB000704720F07F4C80EA030023F07F47ACEB36
:109BC000070303F57C5300F0004003F1FF032DE988
:109BD00080494FEA154B09B44FEA144325EA0B4E6E
:109BE00024EA03480FF2042606EB132749083E78BF
:109BF0005FEA320203FB0667C7F5000707FB06F6BC
:109C00004FEA54374FEAD64606F1020607FB066CC8
:109C1000CCF1005C4FEA1C472CEA074C07FB06F42A
:109C20000CFB06F504EB15464FEA961634BF0020F0
:109C30004FF000404FEAD13706FB07FC4FEA1C4CBF
:109C40000CFB0BF7D21B03FB0CF761EB07010CFBC2
:109C50000EF7B0EB074072EB17420CFB08F734BF6E
:109C6000A2EB0742B2EB074261EB17414FEA0C440B
:109C70004FEA910706FB07FC4FEA1C4C0CFB0BF765
:109C8000B0EBC74072EB573203FB0CF734BFA2EBCB
:109C9000C742B2EBC74261EB57310CFB0EF7B0EB9A
:109CA000C70072EB57720CFB08F734BFA2EBC70278
:109CB000B2EBC70261EB5771039F4FEA816141EA42
:109CC000921104EBCC044FEAD1374FEA826206FBD3
:109CD00007FC42EA90124FEA80604FEA1C4C0CFBF2
:109CE0000BF7D21B03FB0CF761EB07010CFB0EF724
:109CF000B0EB074072EB17420CFB08F734BFA2EB46
:109D00000742B2EB074261EB17414FEA8C554FEA2D
:109D1000910704EB9C2406FB07FC4FEA1C4C0CFB50
:109D20000BF7B0EBC74072EB573203FB0CF734BFB5
:109D3000A2EBC742B2EBC74261EB57310CFB0EF707
:109D4000B0EBC70072EB57720CFB08F734BFA2EB05
:109D5000C702B2EBC70261EB577115EB4C254FEA16
:109D6000816141EA92114FEA82624FEAD13742EAB9
:109D7000901206FB07FC44F100044FEA80604FEAB2
:109D80001C4C0CFB0BF7D21B03FB0CF761EB070120
:109D90000CFB0EF7B0EB074072EB17420CFB08F719
:109DA00034BFA2EB0742B2EB074261EB174115EB60
:109DB0001C154FEA813141EA92414FEA823242EA70
:109DC00090424FEA80304FEA0C7644F1000448EAB2
:109DD00003434EEA0B484FF0000EB2EB080C71EB58
:109DE000030724BF624639464EEB0E0E4FF0000BC0
:109DF0000018524149414BEB0B0BB2EB080C71EBD5
:109E000003077BF1000B24BF624639464EEB0E0E72
:109E10004FF0000B0018524149414BEB0B0BB2EBDA
:109E2000080C71EB03077BF1000B24BF6246394637
:109E30004EEB0E0E51EA020718BF46F0010616EB74
:109E40000E7655F1000254F1000103D5BDE88901F9
:109E5000BDE80088BDE88901BDE80048B619524157
:109E600041EB0101A3F10103704780807F7E7D7C7F
:109E70007B7A7978777676757473727171706F6E9C
:109E80006E6D6C6C6B6A6A69686867666665646447
:109E9000636362616160605F5F5E5E5D5D5C5C5BD1
:109EA0005B5A5A5959585857575656555555545440
:109EB000535352525251515050504F4F4F4E4E4D9E
:109EC0004D4D4C4C4C4B4B4B4A4A4A4949494848EA
:109ED000484747474746464645454544444444432A
:109EE00043434342424242414141000046EA064662
:109EF000A3F570534FEA164646EA42564FEAD2227D
:109F000042EA415210B54FEAD121A3F1010300F01A
:109F100017F820F0004000F1010C00F0004701EBC1
:109F200000501146BCF5006F40EA070000D210BD9A
:109F300002484FF0000140EA070010BD0000F07F2A
:109F4000002B26D4770021D01CB54FEA370703B485
:109F50004FF010004FF010014FF000000FBCBDE8B3
:109F600010400BF1010BBBF1010F08BF5FEA1707AF
:109F700022BF12F1010211F101014FF0004143F142
:109F8000000300F0004043EA00007047F9D357088F
:109F9000DAE746EA064613F1400F4FEA16461FDDA0
:109FA00013F1200FDFBF16430A46002120335B4226
:109FB000C8D0C3F1200746EA064602FA07F74FEA7F
:109FC000164646EA0706C3F1200722FA03F201FA11
:109FD00007F721FA03F14FF0000342EA0702B1E765
:109FE00046EA020646EA06464FEA164646EA0106F1
:109FF000BCBF46EA0646360C4FF000034FF00002A5
:10A000004FF000019EE72DE9C048934630B491E837
:10A01000380007C831EA400C48BF34EA430C03D586
:10A02000FFF7C7FDFFF78CFFF0BCBDE800882DE906
:10A03000C048934630B491E8380007C831EA400C74
:10A0400048BF34EA430C03D5FFF7B3FDFFF74EFFDB
:10A05000F0BCBDE800882DE9C048934630B491E8D3
:10A06000380007C810F0804F08BF13F0804F03D1AD
:10A0700000F019F8FFF764FFF0BCBDE800882DE997
:10A08000C048934630B491E8380007C810F0804FBC
:10A0900008BF13F0804F03D100F005F8FFF726FF4B
:10A0A000F0BCBDE8008820F07F4780EA030023F081
:10A0B0007F4C07EB0C03A3F57C5300F00040A3F1A9
:10A0C000FE0392F0000F00F0B38095F0000F00F057
:10A0D00077802DE901494FEA11404FEA144621EA01
:10A0E000004800FB06FC24EA064708FB06F607FBCF
:10A0F00008F800FB07F718EB06484CEB164C4FEA44
:10A10000124B18EB07484FEA15464CEB174022EA72
:10A110000B4E0BFB06FC25EA06470EFB06F607FB7B
:10A120000EFE0BFB07F71EEB064E4CEB164C4FF0EA
:10A1300000061EEB074E4CEB174B18EB0B0840F1DB
:10A14000000018EB0E0B58EB000840F100008F1ACE
:10A150004FF000013CBFC943661B14BFB5EB040CB4
:10A1600000213CBFC943F61B4FEA17444EEA8E0E4E
:10A1700027EA04454FEA1C4704FB07622CEA074C18
:10A1800005FB07F70CFB05F604FB0CFC16EB07467A
:10A1900042EB174216EB0C4642EB1C421BEB060649
:10A1A00058EB0202414146EA9E0601D5BDE801890D
:10A1B000B619524141EB0101A3F10103BDE8018948
:10A1C0004FEA14454FEA114724EA054621EA074CB5
:10A1D00005FB07F406FB07F70CFB06F105FB0CFC7F
:10A1E00011EB074144EB17444FEA124711EB0C41C6
:10A1F00044EB1C4422EA074C05FB07F206FB07F779
:10A200000CFB06F605FB0CFC16EB074642EB17426F
:10A2100016EB0C4642EB1C456A1854F1000148BF8E
:10A220007047B619524141EB0101A3F10103704798
:10A2300095F0000F37D04FEA11424FEA144721EA58
:10A24000024624EA074C02FB07F106FB07F70CFB6A
:10A2500006F402FB0CFC14EB074441EB17414FEAF8
:10A26000154714EB0C4441EB1C4125EA074C02FB5B
:10A2700007F506FB07F70CFB06F602FB0CFC16EBDA
:10A28000074645EB174516EB0C4645EB1C421219E9
:10A2900051F1000148BF7047B619524141EB01012D
:10A2A000A3F1010370474FEA14454FEA114724EA2E
:10A2B000054621EA074C05FB07F106FB07F70CFBF7
:10A2C00006F24FF0000605FB0CFC12EB074241EBD7
:10A2D000174112EB0C4251EB1C4148BF70479218DA
:10A2E00041EB0101A3F101037047000010B500F03C
:10A2F000BFFA02480249086010BD00000080000853
:10A3000008ED00E0704710B5012000F011F810BD15
:10A3100010B5042000F00CF810BD10B5082000F0B6
:10A3200007F810BD10B5102000F002F810BD0000B5
:10A330000149086070470000140401402DE9F04114
:10A34000024600250026002000230024002791F863
:10A3500003C00CF00F0591F803C00CF0100CBCF119
:10A36000000F03D091F802C04CEA050591F800C037
:10A37000BCF1000F31D0146800202BE04FF0010C2D
:10A380000CFA00F3B1F800C00CEA03069E4220D19B
:10A3900083004FF00F0C0CFA03F7BC4305FA03FCE3
:10A3A0004CEA040491F803C0BCF1280F06D14FF029
:10A3B000010C0CFA00FCC2F814C00AE091F803C0CA
:10A3C000BCF1480F05D14FF0010C0CFA00FCC2F8AB
:10A3D00010C0401C0828D1D31460B1F800C0BCF1F3
:10A3E000FF0F34DD546800202EE000F1080C4FF020
:10A3F000010808FA0CF3B1F800C00CEA03069E420B
:10A4000021D183004FF00F0C0CFA03F7BC4305FA7F
:10A4100003FC4CEA040491F803C0BCF1280F05D1F9
:10A4200000F1080C08FA0CF8C2F8148091F803C087
:10A43000BCF1480F07D100F1080C4FF0010808FAF1
:10A440000CF8C2F81080401C0828CED35460BDE838
:10A45000F08100BFFEE7704770B5002100230F2296
:10A46000C47804B3154C246804F4E064C4F5E064D3
:10A47000210AC1F10403CA40447804FA03F1847844
:10A480001440214309010E4C0678A155047804F0CC
:10A490001F050124AC4005786D11AD0005F1E025E4
:10A4A000C5F8004109E0047804F01F050124AC4020
:10A4B000044D0678761145F8264070BD0CED00E09D
:10A4C00000E400E080E100E02DE9F04704460D469D
:10A4D00016461F46DDE9088920212046FDF7B5FF15
:10A4E0003A46314604F1080000F0E9FD04F10800A5
:10A4F0006860C4F81C80C4F818900020BDE8F0879C
:10A5000038B5044620E0A069401E2168814204DD80
:10A5100000202268E169885420609DF800000A2824
:10A5200006D100202268E16988542060012038BDEE
:10A530009DF800000D2807D09DF800002268E16911
:10A5400088542068401C20600122694604F10800FC
:10A5500000F0CDFD0028D6D1401EE8E70FB4F8B5D5
:10A5600004460026079F08E03878252801D1761C8C
:10A5700002E0387800B901E07F1CF5E700BF8EB13A
:10A5800008A80090E069009A0799FDF7DDFE0546EE
:10A5900000200090AE4202D1F8BC5DF814FB4FF0F1
:10A5A000FF30F9E7E0690799FDF776FF08B9012068
:10A5B000F2E74FF0FF30EFE729B1064AD2690243D4
:10A5C000044BDA6104E0034AD2698243014BDA6149
:10A5D000704700000010024029B1064A9269024308
:10A5E000044B9A6104E0034A92698243014B9A61E9
:10A5F000704700000010024030B500210022002406
:10A6000000232D4D6D6805F00C0121B1042905D002
:10A61000082923D105E0294D056022E0274D05607A
:10A620001FE0254D6D6805F47012234D6D6805F42B
:10A630008034022505EB92421CB9214D554305603B
:10A640000BE01D4D6D6805F400351DB11C4D5543E3
:10A65000056002E0194D5543056002E0174D0560A5
:10A6600000BF00BF144D6D6805F0F0010909154DDC
:10A670006B5C0568DD4045600F4D6D6805F4E06179
:10A68000090A104D6B5C4568DD4085600A4D6D68B8
:10A6900005F46051C90A0B4D6B5C4568DD40C5602F
:10A6A000054D6D6805F44041890B074D6B5CC5682D
:10A6B000B5FBF3F5056130BD0010024000127A00D1
:10A6C00000093D0000000020100000207047704786
:10A6D000704710B500F002F810BD00000CB5002066
:10A6E000019000903348006840F4803031490860A0
:10A6F00000BF3048006800F4003000900198401C12
:10A700000190009818B90198B0F5A06FF1D12948CF
:10A71000006800F4003010B10120009001E000203A
:10A7200000900098012843D12348006840F01000B1
:10A73000214908600846006820F0030008600846C8
:10A74000006840F0020008601A48406819494860F3
:10A750000846406848600846406840F480604860A9
:10A760000846406820F47C1048600846406840F481
:10A77000E81048600846006840F08070086000BF3C
:10A780000C48006800F000700028F9D009484068C3
:10A7900020F00300074948600846406840F0020086
:10A7A000486000BF0348406800F00C000828F9D159
:10A7B0000CBD0000001002400020024010B501F066
:10A7C0002DF801F065FE01F039F810BD10B500213B
:10A7D00000200022214B5B6803F00C0121B1042909
:10A7E00006D0082928D107E01D4B1E4C236027E026
:10A7F0001B4B1C4C236023E0184B5B6803F4701068
:10A80000164B5B6803F48032022303EB904022B9BD
:10A81000154B4343134C23600DE0104B5B6803F46E
:10A82000003323B1104B43430E4C236003E00C4B29
:10A8300043430C4C236003E0094B0A4C236000BFE8
:10A8400000BF064B5B68C3F30313084CE15C054B88
:10A850001B68CB40034C236010BD00000010024079
:10A8600000127A001400002000093D0018000020AA
:10A8700010B51348006840F001001149086008460F
:10A880004068104908400E494860084600680E4973
:10A8900008400B4908600846006820F480200860E2
:10A8A0000846406820F4FE0048604FF41F008860AE
:10A8B000FFF70FFF4FF000600449086010BD000073
:10A8C000001002400000FFF8FFFFF6FE08ED00E078
:10A8D00010B50121044800F048F818B101210248E0
:10A8E00000F034F810BD0000000400407FB50546BC
:10A8F0000C4601210220FFF75FFEADF80850ADF8CD
:10A9000004400020ADF80A00ADF8060001A90E4889
:10A9100000F046F8012211460B4800F037F81D20E0
:10A920008DF8000000208DF8010003208DF8020052
:10A9300001208DF803006846FFF78EFD01210248D3
:10A9400000F007F87FBD000000040040CA43028207
:10A95000704721B1028842F00102028004E00288BF
:10A960004FF6FE731A400280704730B50246002051
:10A9700000230024158A05EA0103958905EA0104EC
:10A9800013B10CB1012000E0002030BD1AB1838961
:10A990000B43838102E083898B43838170470000EE
:10A9A000002202881D4B98420ED01D4B98420BD0BE
:10A9B000B0F1804F08D01B4B984205D01A4B9842FB
:10A9C00002D01A4B984204D14FF68F731A404B882D
:10A9D0001A43174B984207D0164B984204D04FF6B3
:10A9E000FF431A40CB881A4302808B8883850B88EB
:10A9F00003850A4B98420BD0094B984208D00E4B66
:10AA0000984205D00D4B984202D00D4B984201D18F
:10AA10000B7A03860123838270470000002C0140DB
:10AA2000003401400004004000080040000C0040D9
:10AA3000001000400014004000400140004401406C
:10AA40000048014008B540F22551074800F040F8A1
:10AA500048B1054800F0F8F8C0B2009001226946FC
:10AA6000024800F0F8F808BD005000400C03002038
:10AA700008B540F225510E4800F02AF8B0B10C4854
:10AA800000F0E2F8C0B200900A48406828B10949D5
:10AA900001224868694600F060FB0648806828B1DA
:10AAA0000449086801228B686946984708BD000080
:10AAB00000380140FC02002021B1828942F400529A
:10AAC000828104E082894DF6FF731A4082817047CB
:10AAD00070B50246002400230025002040F66A16C7
:10AAE000B14200D100BFC1F3421501F01F0301269E
:10AAF00006FA03F3012D02D19689334006E0022DB8
:10AB000002D1168A334001E0968A33400C120126A6
:10AB100006FA04F41688344013B10CB1012000E0A9
:10AB2000002070BDF0B5034600240026002500205B
:10AB300040F66A17B94200D100BF1846C1F342146B
:10AB400001F01F06012707FA06F5012C01D10C3090
:10AB500004E0022C01D1103000E014301AB1076873
:10AB60002F43076002E00768AF430760F0BD0000B5
:10AB70002DE9F04786B005460E460024A24600BFE8
:10AB8000A1460027B08900B100BF2F462C8A4CF6A1
:10AB9000FF700440F08804432C82AC894EF6F31019
:10ABA0000440B08831890843718908430443AC816B
:10ABB000AC8A4FF6FF400440B0890443AC8201A840
:10ABC000FFF71AFD1F48874202D1DDF810A001E00F
:10ABD000DDF80CA0A88900F4004040B10AEBCA00DF
:10ABE00000EB0A1031684900B0FBF1F807E00AEB0E
:10ABF000CA0000EB0A1031688900B0FBF1F864204C
:10AC0000B8FBF0F004012009642101FB1089A88938
:10AC100000F4004040B1322000EBC900B0FBF1F07D
:10AC200000F00700044308E0322000EB0910642123
:10AC3000B0FBF1F000F00F0004432C8106B0BDE83A
:10AC4000F08700000038014001468888C0F3080002
:10AC5000704700BFFEE770B504460D4616466068B3
:10AC600020B132462946606800F077FAA06820B12A
:10AC7000324629462046A3689847002070BD000050
:10AC80000146481EB0F1807F01D301207047481E65
:10AC90004FF0E0225061FF20044A107000204FF076
:10ACA000E0229061072010610020EFE723ED00E033
:10ACB00040F2013200204FF0E04102F0FCB8000009
:10ACC000024A0020110702F0F6B8000001FDFFFF64
:10ACD00010B50446D1E9000100F002F8206010BD73
:10ACE000F8B504460D466A4600F0FCF800987E3040
:10ACF000009000281FDC002213462046294601F060
:10AD0000A7FF18D0002140F608004FF000000646CB
:10AD10002046294601F056FF044640F6080006EAA0
:10AD200000014FF0000034F0004004BF0220FEF7A5
:10AD3000D2F82046F8BD0098FF280DDB0220FEF770
:10AD4000CAF8002213462046294602F047F88CBF75
:10AD500004484FF0FF40F8BD20462946BDE8F840C2
:10AD600001F030BF000080FF014609B900207047A4
:10AD7000C8B220B1C8B20E4A105C401CF7E701F41B
:10AD80007F4028B10A48C1F30722805C0930EEE712
:10AD900001F47F0028B10648C1F30742805C1130FE
:10ADA000E5E7034800EB116000781930DFE70000A9
:10ADB0004ECF000810B504460A46D4E900031946F0
:10ADC00000F0BCF8C4E9000110BD000003490868A8
:10ADD000884201D0012070470020FCE79800002045
:10ADE00030380A2801D20120704700207047000047
:10ADF0002DE9FC5F04468B4615461E46DDE90C9A9C
:10AE0000DDE90E7804F114004060006000BF1C34DE
:10AE10006560A660C4F80C90C4F810A02321D4E9A2
:10AE2000030200F079FED4E9033C63441A1F0F4B80
:10AE3000D4E9010100F0CCFC2060A7766776002001
:10AE4000E061C4F82080C4F82480606120766065E9
:10AE5000A0651C3C00902346054A2146019004F160
:10AE6000440001F097FB0020BDE8FC9F61C1000891
:10AE7000C9C300082DE9F04704460E461746984618
:10AE8000DDF8209084F80990607A20F0010060726B
:10AE9000E66127620020A062C4F82480002506E055
:10AEA00004F1140101EBC50000F03EFD6D1C012D05
:10AEB000F6DBBDE8F08710B50246002001460EE043
:10AEC00002F1140303EBC100D0E900436360D0E951
:10AED000003423604060006000BF481C0146012927
:10AEE000EEDB10BD10B5144600222260114A21F09D
:10AEF00000439342A8BF10BD53EA000208BF10BD33
:10AF0000B3F5801FA8BF226807DA362201F0D3FF0D
:10AF10006FF0350221F000432260DFF81CC06FF3B0
:10AF20001E510CEB23531A4441F0FF5141F00051E4
:10AF3000226010BD0000F07F02FCFFFF2DE9F04110
:10AF400006460C4640F2FF75174635EA14502BD0E2
:10AF500000221346304601F07BFE25D03A463046AB
:10AF6000214601F0A8FF06460C4635EA145010D0E1
:10AF700000221346304601F06BFE15D10220FDF78A
:10AF8000AAFFFFF79DFE0A46214662F31E01BDE8B7
:10AF9000F0810220FDF79FFFFFF78AFE0A46214657
:10AFA00062F31E01BDE8F08130462146BDE8F08124
:10AFB0001FB500BF4FF4E13001F076FD04464FF4B9
:10AFC000807028490346284ACDE9001021462748C9
:10AFD000FFF77AFA26A12848FDF7A0F905462A4688
:10AFE00025492046E368984700214820FFF77EFC6A
:10AFF00037E01E48FFF784FA002832DD1FA11B4806
:10B00000FFF7ACFA00280ADB1FA11B48FDF786F901
:10B0100005462A4618492046E368984721E01CA1C6
:10B020001248FFF79BFA002815DB142001F044F9C1
:10B03000012080F3138800BF00BF1748006800F4A8
:10B04000E06016490843001D13490860BFF34F8FA5
:10B0500000BF00BFFEE702AB03AA11A10348FFF740
:10B060007DFAC6E7DC010020DC000020BC000020E7
:10B0700068656C6C6F0A0000DC020020636F6E6E06
:10B08000656374696F6E00006F6B320A0000000028
:10B0900052657374000000000CED00E00000FA053A
:10B0A0007365746D6F746F724225643A2564000095
:10B0B00010B5044600F0B8F9FFF77AFF10BD2DE98E
:10B0C000F04104460E461546681E00EA05071FB10A
:10B0D0004FF0FF30BDE8F081266065600020E06041
:10B0E000A06029462068FDF78EF90020F2E72DE9DF
:10B0F000F04104460E461546D4E90201401AA84222
:10B1000001D9284602E0D4E90201401A05466168E7
:10B11000491EE06808406168081AA84201D928461B
:10B1200005E06168491EE06808406168081A074642
:10B130006268521EE0681040226881183A46304624
:10B14000FDF71CF9EA1BF0192168FDF717F9E06813
:10B150002844E0602846BDE8F0812DE9F04104462E
:10B160000F461546D4E90101401AE1680844A84297
:10B1700001D9284604E0D4E90101401AE1680844F5
:10B180000546D4E90110491E08406168081AA84222
:10B1900001D9284605E0D4E90110491E084061683C
:10B1A000081A0646D4E90121521E11402268881867
:10B1B00032463946FDF7E2F8AA1BB9192068FDF7B7
:10B1C000DDF8A0682844A0602846BDE8F0810000B2
:10B1D00030B51A4C436824681919884215D04B8839
:10B1E0009BB9174B1B6899420FD0164B1B688B42BB
:10B1F00001D1144B18604B684360104B1B68C31A95
:10B200000E4D4C682D682C44A3600C4C8368246858
:10B210001A19824211D053887BB90A4B1B688342AA
:10B2200001D1084B1A6043685360044B1B68D31A62
:10B23000024D44682D682C44A36030BD30000020CE
:10B2400034000020380000202DE9F04F86B00D4674
:10B250009C46DDE9106401960F9B04F04008B8F1AC
:10B26000000F02D0DFF8708101E0DFF87081CDF8C7
:10B27000008004F01008B8F1000F01D024F00104A0
:10B2800004F00108B8F1000F02D04FF0300801E0DF
:10B290004FF02008C246002704F00208B8F1000F62
:10B2A00011D0002A02DA2D2752420CE004F00408E3
:10B2B000B8F1000F01D02B2705E004F00808B8F121
:10B2C000000F00D02027002142B94FF0300B8846F4
:10B2D000491C0DF1080909F808B01DE01AE0E14623
:10B2E000B9F10A0F08D14FF00A0BB2FBFBFE0BFBC2
:10B2F0001E28B2FBFBF202E002F00F08120900BFA9
:10B30000DDF8009019F808B08846491C0DF10809CD
:10B3100009F808B0002AE2D1B14200DD0E469B1BBD
:10B3200004F01108B8F1000F10D117B1002B00DDA7
:10B330005B1E06E0A84203D24FF0200880F8008090
:10B34000401CB3F10008A3F10103F3DC27B1A842CC
:10B3500000D207705B1E401C04F01008B8F1000F0B
:10B360000AD104E0A84201D280F800A0401CB3F149
:10B370000008A3F10103F5DC06E0A84203D24FF078
:10B38000300880F80080401CB046761E8845F4DC0A
:10B3900008E0A84205D20DF1080818F8018080F8ED
:10B3A0000080401CB1F10008A1F1010104DDDDF8CD
:10B3B0000480B8F1000FECD106E0A84203D24FF0B0
:10B3C000200880F80080401CB3F10008A3F10103BD
:10B3D000F3DC06B0BDE8F08F5FD000084ED0000867
:10B3E0001CB514200221CB010022CDE90010044934
:10B3F00004A000F08CFE0446204600F0ADFF1CBD0A
:10B40000B1B000086D61696E0000000010B5044C19
:10B4100002E020688047241D02488442F9D310BD11
:10B4200008D100080CD1000810B5044C02E02068D7
:10B430008047241D02488442F9D310BD0CD1000876
:10B4400010D1000810B5FCF7EFFE04460448008850
:10B45000401C00B2024908802046FCF7E9FE10BDFE
:10B460008800002010B5FCF7DFFE04460C48008879
:10B47000401E00B20A4908800846B0F900000028C2
:10B480000ADC002008802046FCF7D2FE0548006850
:10B4900028B100F0F9FB02E02046FCF7C9FE10BD20
:10B4A000880000208C00002070B5054605B970BDED
:10B4B0001D480068854203D31C480068854200D3BC
:10B4C000F5E7A5F10C044FF0FF31194800F0A0FC9E
:10B4D000608818B12088B0F5F55F08D015A000F09D
:10B4E00005FA23886288214619A000F0FFF90020A0
:10B4F00060804FF4F550208021480068844201D2DA
:10B500001F480460084960680968611A401A1D49AB
:10B510000968081A1B4908602046FFF759FE0448CD
:10B5200000F059FC00BFC2E73000002034000020CA
:10B5300014050020746F20667265652061206261C9
:10B5400064206461746120626C6F636B3A0A00006E
:10B550006D656D3A203078253038782C207573650C
:10B560006420666C61673A2025642C206D616769F0
:10B570006320636F64653A203078253034780A00A0
:10B58000380000204000002000487047D80B002001
:10B59000004870470050002070B5FFF717F90A48BF
:10B5A00000684FF47A71B0FBF1F42046FFF768FBB6
:10B5B000FFF72CFFFFF7ECFF0446FFF7E5FF05461A
:10B5C000214600F0DBFC70BD140000207047000035
:10B5D00070B505462C1D2E48006838B128462C4908
:10B5E00009688847064606B970BD00BF29A0E16B0F
:10B5F00000F07CF92BA0216A00F078F92DA0616A97
:10B6000000F074F92FA0A16A00F070F931A0E16A8E
:10B6100000F06CF933A0216800F068F935A061688A
:10B6200000F064F937A0A16800F060F939A0E16882
:10B6300000F05CF93BA0216900F058F93DA0616978
:10B6400000F054F93FA0A16900F050F941A0E16970
:10B6500000F04CF943A0216B00F048F945A0616B64
:10B6600000F044F947A0A16B00F040F9287800F001
:10B67000040038B100F048FE0646314645A000F00F
:10B6800035F902E04BA000F031F900BFFEE7000001
:10B69000B80000207073723A203078253038780A6C
:10B6A000000000007230303A203078253038780AB7
:10B6B000000000007230313A203078253038780AA6
:10B6C000000000007230323A203078253038780A95
:10B6D000000000007230333A203078253038780A84
:10B6E000000000007230343A203078253038780A73
:10B6F000000000007230353A203078253038780A62
:10B70000000000007230363A203078253038780A50
:10B71000000000007230373A203078253038780A3F
:10B72000000000007230383A203078253038780A2E
:10B73000000000007230393A203078253038780A1D
:10B74000000000007231303A203078253038780A15
:10B75000000000007231313A203078253038780A04
:10B76000000000007231323A203078253038780AF3
:10B7700000000000206C723A203078253038780ABA
:10B78000000000002070633A203078253038780AB5
:10B790000000000068617264206661756C74206F3F
:10B7A0006E207468726561643A2025730D0A0D0A73
:10B7B0000000000068617264206661756C74206F1F
:10B7C0006E2068616E646C65720D0A0D0A000000DF
:10B7D000F0B504460D461646301D20F007004038EF
:10B7E0000146002203E00C4F41F82270521C102A3F
:10B7F000F9D30D624FF0000CC1F824C0C1F828C085
:10B80000C1F82CC0C1F830C04B638C634FF0807C12
:10B81000C1F83CC0F0BD0000EFBEADDE10B5FCF7D6
:10B8200003FD044604480078401C03490870204684
:10B83000FCF7FEFC10BD00002C00002010B5FCF74A
:10B84000F3FC044604480078401E03490870204673
:10B85000FCF7EEFC10BD00002C00002070B5044683
:10B860002068A0F11405284600F030FD002070BDCE
:10B870002DE9F04105460C469046204600F082FD39
:10B88000B8F1000F03D0B8F1010F23D105E004F1A6
:10B890001401284600F060F81CE02E680FE0A6F1C5
:10B8A000140794F8350097F83510884206DA04F149
:10B8B000140107F1140000F04FF802E03668AE42C0
:10B8C000EDD100BFAE4204D104F11401284600F0CE
:10B8D00043F800BF00BF0020BDE8F08110B504466A
:10B8E00004F1140000F01AF8002010BD0FB438B5B0
:10B8F00005A800907F210848009B049A00F0F6FEFE
:10B9000004467F2C00D97F240348FFF75FFE002008
:10B91000009038BC5DF814FB940400204060006087
:10B920007047406000607047406000607047026888
:10B93000516002680A6001604860704702685160A7
:10B9400002680A60016048607047026851600268DE
:10B950000A600160486070474268116042684A604E
:10B9600041600860704701460868884201D10120A3
:10B9700070470020FCE701460868884201D1012099
:10B9800070470020FCE7D0E900215160D0E90012A7
:10B990001160406000607047D0E900215160D0E93B
:10B9A0000012116040600060704700002DE9F04116
:10B9B000054615B90020BDE8F081E81C20F003051C
:10B9C0004E480068854201D90020F4E70C2D00D2D2
:10B9D0000C254FF0FF314A4800F01AFA4948006838
:10B9E00049490968461A7EE047480068841960881A
:10B9F000002874D106F10C006168081AA8426ED3C1
:10BA000006F10C006168091A05F11800814230D373
:10BA100006F10C0000EB05083B48006800EB080746
:10BA20004FF4F55038800020788060687860BE6000
:10BA3000C4F80480012060803048796800680C30C8
:10BA4000814205D03049786809680844C0F8088008
:10BA50002E48016805F10C0008442C4908602C4868
:10BA600000680968884219D2284800682849086097
:10BA700014E001206080244960680968611A401A56
:10BA8000224909680844214908602148006809687A
:10BA9000884203D21D4800681D4908604FF4F550E4
:10BAA000208018480068844212D107E015480068D9
:10BAB000406815490968084412490860114800683F
:10BAC000408828B10F480068124909688842EDD1C2
:10BAD0000B4800F080F904F10C006CE7FFE70A481E
:10BAE00000683044466805480068401BB0423FF695
:10BAF0007BAF034800F06FF900205CE73C000020BA
:10BB000014050020380000203000002040000020F4
:10BB10004400002034000020F0B50C460546E6B293
:10BB2000042A15D300F0030797B9014646EA062315
:10BB300043EA034304E008C108C108C108C1103A40
:10BB4000102AF8D201E008C1121F042AFBD20D46C8
:10BB500001E005F8016B171EA2F10102F9D1F0BD59
:10BB60002DE9F04106460F46304600F045F80546FF
:10BB7000E868FFF71BFF044614B90020BDE8F08118
:10BB800000212046EA68FFF7C7FF26720020607296
:10BB900008223946204600F0D6F9FCF745FB8046DE
:10BBA00004F10C01281DFFF7C2FE4046FCF740FBE4
:10BBB0002046E3E770B5044600202072FCF734FB12
:10BBC000054604F10C00FFF7DEFE2846FCF730FBCB
:10BBD0002046FFF769FC70BD70B504460020207256
:10BBE000FCF722FB054604F10C00FFF7CCFE2846CB
:10BBF000FCF71EFB70BD0000024600210AE007486A
:10BC000000EB01100078904203D1044800EB0110D2
:10BC10007047491C0429F2DB0020F9E748000020A6
:10BC20002DE9F04704460D46904600262846FFF7CA
:10BC3000E3FF0746FFF706FC7E6802E0A6F10C0072
:10BC40003668381D8642F9D1FFF70CFC45F08000BC
:10BC5000207208224146204600F075F9FCF7E4FA0C
:10BC6000814604F10C01381DFFF761FE4846FCF7E0
:10BC7000DFFABDE8F0870146087A00F0800008B1DD
:10BC8000012070470020FCE72DE9F041FCF7CCFAD9
:10BC900007461848008838BB17480068FFF764F863
:10BCA000461E164850F83600A0F1140414480068E7
:10BCB000844218D013490E70114805680460124878
:10BCC000007850B904F11C0105F11C00FCF7B3FA2F
:10BCD0003846FCF7ADFABDE8F08104F11C0105F12E
:10BCE0001C00FCF7A8FA00BF3846FCF7A1FA00BF19
:10BCF000F1E70000880000209400002034050020B7
:10BD00008C000020900000202C00002070B504461C
:10BD1000FCF78AFA054614F8340F20F00F0040F0C3
:10BD2000010020706278343C0A4B03EBC20004F13E
:10BD300014014268116042684A604160086000BFB7
:10BD40000549A06B09680843034908602846FCF7C9
:10BD50006FFA70BD340500209400002070B50446D1
:10BD6000FCF762FA054604F11400D0E900215160A5
:10BD7000D0E9001211604060006000BF94F83510F7
:10BD8000094A02EBC1000168814201D1012100E0B2
:10BD9000002129B10548A16B006888430349086068
:10BDA0002846FCF745FA70BD3405002094000020B9
:10BDB0002DE9F04104460D4616461F462A4602214B
:10BDC0002046FFF72DFF2046FFF788FDA683677208
:10BDD0000020BDE8F08170B504460025FCF724FA88
:10BDE000064604F11400FFF7BEFD28B904F1140063
:10BDF000FFF734FD012502E0A08B401CA0833046F4
:10BE0000FCF716FA012D01D1FFF73EFF002070BDAF
:10BE100073B50546FCF708FA0646A88B002806DD30
:10BE2000A88B401EA8833046FCF702FA28E0019850
:10BE300028B93046FCF7FCF96FF001007CBD00F03A
:10BE400063FA0446002020636A7A214605F1140053
:10BE5000FFF70EFD0198002809DD01AA002104F179
:10BE6000440000F06BFB04F1440000F0ABFB3046F3
:10BE7000FCF7DEF9FFF708FF206B08B1206BDDE768
:10BE80000020DBE708B509A0FFF730FD0AA0FFF7A7
:10BE90002DFD12A0032301221946009012A0FFF7E6
:10BEA00025FD19A0FFF722FD08BD00000A205C2037
:10BEB0007C202F0A000000002D205254202D20202D
:10BEC000202020546872656164204F70657261742F
:10BED000696E672053797374656D0A004A756C202A
:10BEE0003134203230323000202F207C205C202062
:10BEF00020202025642E25642E2564206275696C1F
:10BF0000642025730A0000002032303036202D20B6
:10BF10003230313920436F707972696768742062FA
:10BF2000792072742D746872656164207465616D26
:10BF30000A00000001460A4600E0521C1078002862
:10BF4000FBD1501A704770B50346A2B118460C4693
:10BF500000BF14F8016B00F8016B3EB902E0002548
:10BF600000F8015B551E2A1EF9D102E0551E2A1E5B
:10BF7000EFD100BF00BF184670BD00002DE9F041B1
:10BF800005460E46E81C20F0030726F00308B8F12A
:10BF9000180F09D9A8F11800B84205D3A8EB07007B
:10BFA00018381E49086006E0324629461CA0FFF7F3
:10BFB0009DFCBDE8F0812948076004684FF4F55006
:10BFC0002080164800680C3060600020A06060800F
:10BFD0002249606809680844214908604FF4F55017
:10BFE0000968088001201E49096848800B480068DC
:10BFF0000C301B4909684860084800680C30184933
:10C00000096888600023012216A11848FFF7D0FEB6
:10C01000124800681649086000BFCAE73C000020CB
:10C020006D656D20696E69742C206572726F722067
:10C03000626567696E20616464726573732030782D
:10C0400025782C20616E6420656E642061646472C2
:10C0500065737320307825780A00000030000020D6
:10C0600034000020686561700000000014050020A5
:10C070003800002010B500200B490880002405E09E
:10C080000A4901EBC400FFF74CFC641C082CF7DBE9
:10C090000720074908700020064908600649086023
:10C0A0000648FFF73EFC10BD880000203405002044
:10C0B000900000208C0000209400002098000020B8
:10C0C00070B508480068FEF74FFE451E064850F858
:10C0D0003500A0F114040548046004F11C00FCF7CD
:10C0E000D8F870BD94000020340500208C0000209A
:10C0F00010B5002405E0044901EBC400FFF714FC6F
:10C10000641C002CF7D010BDA000002070472DE962
:10C11000FF5F06460F4690461D46DDE90EAB3146F1
:10C120000120FFF71DFD8146B9F1000F03D100206A
:10C1300004B0BDE8F09F2846FFF738FC044624B958
:10C140004846FFF737FD0020F2E743463A463146BE
:10C1500048468DE8300CFEF74BFE4846E8E7000005
:10C1600070B512480468FCF75FF805462046FFF7F3
:10C17000F5FD042084F8340004F1440000F0FAF9DD
:10C180002046FFF778FD012805D1206F18B9204619
:10C19000FFF722FD04E004F114010548FFF7CEFB90
:10C1A0002846FCF745F8FFF76FFD70BD8C000020B6
:10C1B0009800002001E000F001F8FCE770B53AE0DB
:10C1C000FCF732F80546FEF701FE30B31D48006863
:10C1D000A0F1140404F11400D0E900215160D0E969
:10C1E000001211604060006000BFFFF72BF9206F64
:10C1F00010B12046216F88472046FFF73CFD0128FB
:10C2000008D12046FFF7E8FCFFF72CF92846FCF799
:10C210000FF870BDFFF726F903E02846FCF708F891
:10C22000F7E72846FCF704F8A06AFFF73DF9204637
:10C23000FFF7C0FC00BFFEF7C9FD0028C0D100BF5A
:10C24000E7E70000980000201FB520200721C2006A
:10C25000074BCDE90032CDE902100023054A06A1C3
:10C26000074800F00FF8064800F076F81FBD000000
:10C2700094030020B5C100087469646C6500000077
:10C280001C0300202DE9FF5F05460C4616461F469D
:10C29000DDE910ABDDE90E89224601212846FFF7D2
:10C2A000BFFC3B463246214628468DE8000FFEF78C
:10C2B0009FFD04B0BDE8F09F70B50446204600F035
:10C2C000C5F80546284600F025F870BD70B504464F
:10C2D00094F8340000F00F00022802D04FF0FF3035
:10C2E00070BDFBF7A1FF054604F11400FFF754FBF6
:10C2F00004F1440000F0E2F92846FBF799FF2046DC
:10C30000FFF704FD0020EBE70148006870470000DC
:10C310008C00002031B5FBF787FF05460D48046807
:10C32000204600F02FF86A46002104F1440000F096
:10C3300005F904F1440000F045F92846FBF778FFC1
:10C34000FFF7A2FC206B801C08B9002020630020AE
:10C3500038BD00008C00002010B504463434A078AD
:10C3600060706178012088406060022004F8340920
:10C370002046FFF7ABFFFFF7C7FF08B1FFF784FCCC
:10C38000002010BD70B5044694F8340000F00F0092
:10C39000012802D04FF0FF3070BDFBF745FF054686
:10C3A00094F8340020F00F0040F0020084F83400CC
:10C3B0002046FFF7D3FC04F1440000F07FF9284643
:10C3C000FBF736FF0020E7E770B5044625466FF01F
:10C3D0000100286305F11400FFF7DEFA2846FFF795
:10C3E00095FCFFF751FC70BD70B5FBF71DFF0546CE
:10C3F0001448046894F8340000F00F0001281CD1A0
:10C40000D4E90510814218D004F11400FFF7C4FAF2
:10C4100094F835200C4B03EBC20004F11401426880
:10C42000116042684A604160086000BF2846FBF71F
:10C43000FFFEFFF729FC002070BD2846FBF7F8FE41
:10C440000020F9E78C000020340500200146002977
:10C4500002DA4FF0FF3014E04FF47A7291FBF2F2FF
:10C460004FF47A7302FB03F01A4691FBF2F302FBDE
:10C4700013124FF47A735A4302F2E73292FBF3F24B
:10C4800010447047014800687047000028000020F1
:10C4900010B50A480068401C08490860FFF734FFDF
:10C4A0000446206C401E2064206C18B9E06B2064A8
:10C4B000FFF79AFF00F004F810BD000028000020EC
:10C4C00070B5FFF7DFFF0546FBF7AEFE064628E036
:10C4D00019480068A0F11404A06A281A6FF00041FE
:10C4E00088421DD22046FEF7E6FCD4E907108847B3
:10C4F000FFF7C8FF0546607A00F0020058B1607A85
:10C5000000F0010038B1607A20F00100607220462E
:10C5100000F058F805E0607A20F00100607200E059
:10C5200004E00548FFF727FA0028D1D000BF3046C5
:10C53000FBF77EFE70BD0000A0000020034649B15D
:10C54000012904D0022908D0032910D10AE0586A31
:10C5500010600CE01068586209E0587A20F0020080
:10C56000587204E0587A40F00200587200BF00BFD1
:10C570000020704770B50446FBF756FE054620467E
:10C58000FEF799FC2846FBF753FE2046FFF724FBF5
:10C59000002070BD2DE9F84307460C4615461E469F
:10C5A000DDE9088922460A213846FFF739FB434670
:10C5B000324629463846CDF80090FEF75BFCBDE8D0
:10C5C000F88300002DE9F8430546FBF72DFE804671
:10C5D0002846FEF770FC687A20F001006872404639
:10C5E000FBF726FEFFF74EFF696A0844A862FBF7D7
:10C5F0001BFE80462F4F009700242AE019E05DF8CB
:10C6000024201168142202EBC402881A826AAB6AE1
:10C61000D21A00D108E0826AAB6AD21A6FF00043E6
:10C620009A4200D20CE000BF5DF8240000684DF88B
:10C6300024005DF8240007EBC40149688842DED17C
:10C6400000BF2CB15DF824000830611C4DF82100BA
:10C65000641C002CD2D018480068401C16490860A1
:10C660000846066805F114010098FFF76EF90224E8
:10C6700012E006F0030060B9C4F1010305F11402F1
:10C6800002EBC301C4F101025DF82200FFF75DF97E
:10C6900000E003E0B608641C012CEAD900BF687A08
:10C6A00040F0010068724046FBF7C2FD0020BDE883
:10C6B000F8830000A0000020A800002070B5044608
:10C6C000607A00F0010010B94FF0FF3070BDFBF749
:10C6D000ABFD05462046FEF7EEFB2846FBF7A8FD1E
:10C6E000607A20F0010060720020EFE72DE9FF4F33
:10C6F00089B0804644460A9808EB0006464504D2B5
:10C700004FF0FF36A6EB08000A906FE10B98007817
:10C71000252806D0B44202D20B9800782070641C01
:10C7200061E1002526E00B98401C0B900B980078E7
:10C730002D2802D145F010051CE00B9800782B281D
:10C7400002D145F0040515E00B980078202802D1AD
:10C7500045F008050EE00B980078232802D145F03B
:10C76000200507E00B980078302802D145F001053C
:10C7700000E000E0D7E700BF4FF0FF370B980078EC
:10C7800030380A2804D20BA800F065F907460EE0FD
:10C790000B9800782A280AD10B98401C0B900C9813
:10C7A00080C80C90002F02DA7F4245F010054FF050
:10C7B000FF390B9800782E281CD10B98401C0B9049
:10C7C0000B98007830380A2804D20BA800F043F9FF
:10C7D00081460AE00B9800782A2806D10B98401C65
:10C7E0000B900C9850F8049B0C90B9F1000F01DAF3
:10C7F0004FF00009002004900B980078682803D0BF
:10C800000B9800786C2805D10B98007804900B9851
:10C81000401C0B900A2005900B9800786F2875D06B
:10C820000CDC632813D004DC252870D058286FD185
:10C830008DE064286DD06928F9D18FE070286AD026
:10C84000732825D0752878D07828F0D182E005F0BB
:10C85000100040B904E0B44201D220202070641CD2
:10C86000781E071EF7DC0C9810F8041B0C90C8B259
:10C870000790B44201D207982070641C04E0B442CF
:10C8800001D220202070641C781E071EF7DCAAE06D
:10C890000C98006806900C98001D0C90069808B93A
:10C8A0005CA006900698FFF745FB8346B9F1000FA0
:10C8B00002DDCB4500DDCB4605F0100048B904E0B1
:10C8C000B44201D220202070641C38467F1E584597
:10C8D000F6DC002008900BE0B44202D20698007803
:10C8E0002070641C0698401C06900898401C089014
:10C8F00008985845F0DB04E0B44201D220202070B3
:10C90000641C38467F1E5845F6DC6CE01CE015E0E0
:10C9100028E022E0FFE7781C10B9082745F0010560
:10C92000CDE9007902950C9804C8102331460C908B
:10C930002046FEF789FC044655E012E0B44201D2DD
:10C9400025202070641C4EE0082005901DE045F075
:10C95000400500BF1020059017E000BF45F002051C
:10C9600000BF12E0B44201D225202070641C0B9855
:10C97000007830B1B44202D20B9800782070641C69
:10C9800002E00B98401E0B902DE000BF04986C282D
:10C9900007D10C9850F804AB0C9005F00200B8B128
:10C9A00016E0049868280BD10C9830F8041B1FFA85
:10C9B00081FA0C9005F0020050B10FFA8AFA07E0F4
:10C9C0000C9850F804AB0C9005F0020000B100BFC9
:10C9D000CDE900790295524631462046059BFEF787
:10C9E00033FC044600BF0B98401C0B900B9800785A
:10C9F00000287FF48BAE0A9838B1B44202D20020EE
:10CA0000207002E0002006F8010CA4EB08000DB035
:10CA1000BDE8F08F284E554C4C290000002070478F
:10CA200000207047002070470020704710B5FBF7CA
:10CA3000FBFBFEF7B1FDFFF725FAFFF759FBFFF708
:10CA400019FBFEF7CDFCFFF761FBFFF7FDFBFFF7DE
:10CA500037FB002010BD0146002009E00B685A1C7E
:10CA60000A601A7800EB800302EB4302A2F1300067
:10CA70000A681278303A0A2AF0D3704710B5034694
:10CA80000BE000BF0748008800F040000028F9D004
:10CA90000878044CA080521E491C002AF1DC0020BA
:10CAA00010BD00000050004010B586B004462A4872
:10CAB0000021016041608160C16028482649C8604A
:10CAC00001210805FDF778FD01213020FDF784FDE7
:10CAD0004FF48050ADF8140003208DF81600182094
:10CAE0008DF8170005A91E48FDF728FC0420ADF8B5
:10CAF00014008DF8170005A91A48FDF71FFC352012
:10CB00008DF8000003208DF801008DF8020001204F
:10CB10008DF803006846FDF79FFC01940020ADF8F6
:10CB20000800ADF80A00ADF80C00ADF810000C20BC
:10CB3000ADF80E0001A90C48FEF71AF8012240F2E8
:10CB400025510948FDF7EEFF01210748FDF7B4FF25
:10CB5000014806B010BD00000C0300207DCA00088B
:10CB600000100140001401400050004010B50029A1
:10CB70000AD00878002807D005487844FBF78CFCD9
:10CB8000002801D0002010BD0248784410BD0000EC
:10CB9000C2050000BA05000010B500290AD00878C7
:10CBA000002807D005487844FBF776FC002801D020
:10CBB000002010BD0248784410BD0000B2050000FE
:10CBC000AA05000021F00042A2F16052B2F5801FD8
:10CBD00001F0004328BFD2F17F6C0BD95FEA001C43
:10CBE00043EAC20242EB507018BF704728BF20F0E2
:10CBF00001007047B2F5801FBCBF184670474FEA6E
:10CC0000410C1CF5001F02D2084600F01DB970B59A
:10CC100000F096F800000089FFF7F6BF4FF00040E3
:10CC2000A0F580007047000002494FF0000000F0BE
:10CC300010B900BF0000F87F491058BFC1F1404152
:10CC40005B1058BFC3F140438B42EFF30080704745
:10CC500051EA030C17D41CF5801F58BFBCF5801F88
:10CC600000F10680994218BF704708BF9042704794
:10CC700007D711F5801F58BF13F5801F19D49942AB
:10CC80007047894270471CF5801F08D5BCF5801F8E
:10CC9000F7D58B4218BF704708BF824270474FF4E8
:10CCA000001C1CEB410F38BF1CEB430F01D28B4221
:10CCB000704770B500F044F8922449004FF00051DD
:10CCC0004FF08053FFF7B8BF51EA030C17D41CF59F
:10CCD000801F58BFBCF5801F00F10680994218BF25
:10CCE000704708BF9042704707D711F5801F58BFA3
:10CCF00013F5801F19D499427047894270471CF57B
:10CD0000801F08D5BCF5801FF7D58B4218BF704730
:10CD100008BF824270474FF4001C1CEB410F38BF24
:10CD20001CEB430F01D28B42704770B500F008F83E
:10CD3000922449004FF000514FF08053FFF77CBF21
:10CD40000EF1020E2EF0030E5EF8046B364205D48F
:10CD5000012A43EB030515F5001F12D8012841EB0A
:10CD6000010C1CF5001F0CD80ED14FEAD17C15F533
:10CD7000001F0CEB4C0C0CF1020C08BF4CEBD37CED
:10CD800004E04FF0080C01E04FEAD37C0CEB4C05BB
:10CD900026FA05F606F00706B6F1040C06D20EEBED
:10CDA000860CBDE870404CF0010C6047DFE80CF0E9
:10CDB000090B02024FF000414FF00000A1F50021E5
:10CDC00070BD19461046012851EB010418BFD4F577
:10CDD000001484BF002001F0004170BD53EA010C33
:10CDE00017D41CF5801F58BFBCF5801F00F10680CA
:10CDF0008B4218BF704708BF8242704707D713F5B0
:10CE0000801F58BF11F5801F19D48B4270479B4279
:10CE100070471CF5801F08D5BCF5801FF7D59942D7
:10CE200018BF704708BF904270474FF4001C1CEBBE
:10CE3000430F38BF1CEB410F01D2994270470FB42A
:10CE40000CBC03BCFFF771BFFF2141EAD050C00505
:10CE500070470CF00F03092B08BF082000F05F801B
:10CE60000A2B0BD0082B18BF704708BF1CF0400FCF
:10CE70000AD04FF000004FF0000170471CF0400F47
:10CE800018BF4FF0004070471CF0100F08D020F082
:10CE9000704300F07F4242EAD3014FEA437070478B
:10CEA00000F0604021F07F4242EA000201F07F4042
:10CEB00040EA727070474FF0FF0C4CF4E06C1CEAD3
:10CEC00011531CBF9CEA030C9445C2BFDA4201EB2C
:10CED00002517047002B0DD0BCF1000F0FD0002A7B
:10CEE00001F00041A4BF41F0E04141F07F614FF00B
:10CEF0000000704701F000414FF00000704750EA19
:10CF000001334FF09B0C18BF4CF0806C7FF48CAE5B
:10CF10007047FCF7BDBAFCF70FBCFCF79DBD1CF4D5
:10CF2000801F11D01CF4E02F03D06FEACC314900F0
:10CF300070474FF04050EFF3008222F0704242EA17
:10CF4000000282F3008870474FF000007047000035
:10CF500001000200010003000100020001000400C2
:10CF600001000200010003000100020001000500B1
:10CF700001000200010003000100020001000400A2
:10CF80000100020001000300010002000100060090
:10CF90000100020001000300010002000100040082
:10CFA0000100020001000300010002000100050071
:10CFB0000100020001000300010002000100040062
:10CFC000010002000100030001000200010007004F
:10CFD0000100020001000300010002000100040042
:10CFE0000100020001000300010002000100050031
:10CFF0000100020001000300010002000100040022
:10D00000010002000100030001000200010006000F
:10D010000100020001000300010002000100040001
:10D0200001000200010003000100020001000500F0
:10D0300001000200010003000100020001000400E1
:10D040000100020001000300010002000100303174
:10D05000323334353637383961626364656600309F
:10D06000313233343536373839414243444546004E
:10D0700002400000000000A0000000000540000089
:10D08000000000C8000000000C4000000000409CB0
:10D0900000000000194000000020BCBE000000009D
:10D0A00034400000BFC91B8E00000004B5400000E2
:10D0B000504BCFD06607E2CF010000006C4100006A
:10D0C0003E8251AADFEEA73401000000D9420000E1
:10D0D000DCB5A0E23A301F97FFFFFFFFB445000028
:10D0E000FD25A0C8E9A3C14FFFFFFFFFFF3F0000E0
:10D0F0000000008000000000FF3F000000000080F2
:10D100000000000029CA000821CA00081DCA000842
:10D1100025CA000868D2000800000020BC000000FA
:10D120006C81000824D30008BC0000201C0B000008
:10D1300088810008000000000000F07F1C00000053
:10D1400043000000F8FFFFFF0C0000000E0000008D
:10D150000F0000002E00000010010000430000003E
:10D16000F8FFFFFF00404040404040404040414108
:10D1700041414140404040404040404040404040AC
:10D180004040404040050202020202020202020246
:10D190000202020202202020202020202020200243
:10D1A00002020202020290909090909010101010D3
:10D1B000101010101010101010101010101010106F
:10D1C0000202020202028888888888880808080803
:10D1D00008080808080808080808080808080808CF
:10D1E00002020202400000000000000000000000F7
:10D1F000000000000000000000000000000000002F
:10D20000000000000000000000000000000000001E
:10D21000000000000000000000000000000000000E
:10D2200000000000000000000000000000000000FE
:10D2300000000000000000000000000000000000EE
:10D2400000000000000000000000000000000000DE
:10D2500000000000000000000000000000000000CE
:10D2600000000000000000000000000001020304B4
:10D2700001020304060708090204060800A24A0482
:10D280000000000000000000010203040607080976
:10D29000000000000000000000000000000000008E
:10D2A000000000000000000000000000000000007E
:10D2B000010000004C0000204C000020780000001D
:10D2C000020000005C0000205C0000202000000044
:10D2D000050000006C0000206C0000203000000001
:10D2E0000A0000007C0000207C0000202C000000D0
:10D2F000000000000000000000000000000000002E
:10D30000000000000000000000000000000000001D
:10D31000000000000000000000000000000000000D
:04D320000000000009
:04000005080081313D
:00000001FF
