:020000040800F2
:1000000070090020890100086D0400086F020008D3
:10001000690400082D040008FB0600080000000029
:100020000000000000000000000000007104000853
:100030003104000800000000F70100085D05000819
:10004000A3010008A3010008A3010008A301000800
:10005000A3010008A301000833040008A30100085D
:100060003D0400084704000851040008A3010008EB
:10007000A3010008A3010008A3010008A3010008D0
:10008000A3010008A3010008A3010008A3010008C0
:10009000A3010008A3010008A3010008A3010008B0
:1000A000A3010008A3010008A3010008A3010008A0
:1000B000A3010008A3010008A3010008A301000890
:1000C000A3010008A3010008A3010008A301000880
:1000D0006F04000871060008A3010008A3010008CE
:1000E000A3010008A3010008A301000800F002F822
:1000F00000F03AF80AA090E8000C82448344AAF188
:100100000107DA4501D100F02FF8AFF2090EBAE885
:100110000F0013F0010F18BFFB1A43F0010318473B
:100120006421000084210000103A24BF78C878C1FF
:10013000FAD8520724BF30C830C144BF04680C60ED
:10014000704700000023002400250026103A28BF35
:1001500078C1FBD8520728BF30C148BF0B60704739
:100160001FB51FBD10B510BD00F022F91146FFF7F5
:10017000F7FF00F056F900F040F903B4FFF7F2FF83
:1001800003BC00F047F900000948804709480047D0
:10019000FEE7FEE7FEE7FEE7FEE7FEE7FEE7FEE737
:1001A000FEE7FEE704480549054A064B7047000094
:1001B00011060008ED0000087003002070090020FF
:1001C0007005002070050020EFF3108072B67047B4
:1001D00080F310887047334A1368012B04D04FF026
:1001E00001031360304A1060304A116030484FF00C
:1001F000805101607047EFF3108272B629480168A0
:1002000091B14FF0000101602748016829B1EFF377
:10021000098121E9F00F0068016024490968096833
:10022000B1E8F00F81F3098882F310884EF0040ED4
:1002300070471E4908601C494FF0000008601949CA
:100240004FF0010008601B484FF47F01D0F80020F8
:1002500041EA0201016016484FF0805101601648E2
:100260000068006880F3088861B662B670471EF0C7
:10027000040F0CBFEFF30880EFF3098020E9F00FC3
:1002800040F804ED1EF0040F0CBF80F3088880F3E3
:10029000098800B500F04EFD5DF804EB4EF0040E49
:1002A00070470000A0000020980000209C00002063
:1002B00004ED00E020ED00E008ED00E0032A40F24C
:1002C000308010F0030C00F0158011F8013BBCF1F8
:1002D000020F624498BF11F801CB00F8013B38BF10
:1002E00011F8013BA2F1040298BF00F801CB38BF1E
:1002F00000F8013B11F0030300F02880083AC0F039
:10030000088051F8043B083A51F804CBA0E80810E3
:10031000F5E7121D5CBF51F8043B40F8043BAFF316
:100320000080D20724BF11F8013B11F801CB48BF70
:1003300011F8012B24BF00F8013B00F801CB48BFA6
:1003400000F8012B704770477047704710B5203A8E
:10035000C0F00B80B1E81850203AA0E81850B1E87E
:100360001850A0E81850BFF4F5AF5FEA027C24BF34
:10037000B1E81850A0E8185044BF18C918C0BDE82B
:1003800010405FEA827C24BF51F8043B40F8043BF4
:1003900008BF7047D20728BF31F8023B48BF11F8A9
:1003A000012B28BF20F8023B48BF00F8012B704703
:1003B000754600F02BF8AE4605006946534620F01E
:1003C0000700854618B020B5FFF7ECFEBDE82040D9
:1003D0004FF000064FF000074FF000084FF0000B01
:1003E00021F00701AC46ACE8C009ACE8C009ACE8B4
:1003F000C009ACE8C0098D46704710B50446AFF39C
:1004000000802046BDE81040FFF7B7BE00487047A7
:100410001003002001491820ABBEFEE726000200B1
:10042000704710B501F06CFE002010BD00BFFEE764
:10043000704710B5012000F011F810BD10B5042070
:1004400000F00CF810BD10B5082000F007F810BD42
:1004500010B5102000F002F810BD0000014908603E
:10046000704700001404014000BFFEE7704770476A
:10047000704710B500F002F810BD00000CB5002068
:10048000019000903348006840F4803031490860A2
:1004900000BF3048006800F4003000900198401C14
:1004A0000190009818B90198B0F5A06FF1D12948D2
:1004B000006800F4003010B10120009001E000203D
:1004C00000900098012843D12348006840F01000B4
:1004D000214908600846006820F0030008600846CB
:1004E000006840F0020008601A48406819494860F6
:1004F0000846406848600846406840F480604860AC
:100500000846406820F47C1048600846406840F483
:10051000E81048600846006840F08070086000BF3E
:100520000C48006800F000700028F9D009484068C5
:1005300020F00300074948600846406840F0020088
:10054000486000BF0348406800F00C000828F9D15B
:100550000CBD0000001002400020024010B500F069
:100560000FFD01F0FFFA00F01BFD10BD10B50021DA
:1005700000200022214B5B6803F00C0121B104290B
:1005800006D0082928D107E01D4B1E4C236027E028
:100590001B4B1C4C236023E0184B5B6803F470106A
:1005A000164B5B6803F48032022303EB904022B9C0
:1005B000154B4343134C23600DE0104B5B6803F471
:1005C000003323B1104B43430E4C236003E00C4B2C
:1005D00043430C4C236003E0094B0A4C236000BFEB
:1005E00000BF064B5B68C3F30313084CE15C054B8B
:1005F0001B68CB40034C236010BD0000001002407C
:1006000000127A000000002000093D0004000020D4
:1006100010B51348006840F0010011490860084611
:100620004068104908400E494860084600680E4975
:1006300008400B4908600846006820F480200860E4
:100640000846406820F4FE0048604FF41F008860B0
:10065000FFF70FFF4FF000600449086010BD000075
:10066000001002400000FFF8FFFFF6FE08ED00E07A
:1006700008B540F22551074800F010F848B1054888
:1006800000F036F8C0B2009001226946024800F03E
:1006900036F808BD00380140A800002070B50246B9
:1006A000002400230025002040F66A16B14200D144
:1006B00000BFC1F3421501F01F03012606FA03F340
:1006C000012D02D19689334006E0022D02D1168A0F
:1006D000334001E0968A33400C12012606FA04F4F6
:1006E0001688344013B10CB1012000E0002070BD29
:1006F00001468888C0F30800704700BFFEE770B568
:1007000004460D461646606820B1324629466068A8
:1007100000F0D5F8A06820B1324629462046A368EB
:100720009847002070BD00000146481EB0F1807F50
:1007300001D301207047481E4FF0E0225061FF2096
:10074000044A107000204FF0E022906107201061F1
:100750000020EFE723ED00E0014609B900207047D3
:10076000C8B220B1C8B20E4A105C401CF7E701F4D1
:100770007F4028B10A48C1F30722805C0930EEE7C8
:1007800001F47F0028B10648C1F30742805C1130B4
:10079000E5E7034800EB116000781930DFE700005F
:1007A0005021000803490868884201D001207047A1
:1007B0000020FCE7840000202DE9FC5F04468B4606
:1007C00015461E46DDE90C9ADDE90E7804F11400A9
:1007D0004060006000BF1C346560A660C4F80C90E7
:1007E000C4F810A02321D4E9030200F047FDD4E9A6
:1007F000033C63441A1F0F4BD4E9010100F09AFB3C
:100800002060A77667760020E061C4F82080C4F8F5
:100810002480606120766065A0651C3C00902346C2
:10082000054A2146019004F1440001F01DFA002020
:10083000BDE8FC9FC5180008D51A00082DE9F0474F
:1008400004460E4617469846DDF8209084F8099035
:10085000607A20F001006072E66127620020A062E9
:10086000C4F82480002506E004F1140101EBC50062
:1008700000F00CFC6D1C012DF6DBBDE8F08710B517
:100880000246002001460EE002F1140303EBC10012
:10089000D0E900436360D0E9003423604060006029
:1008A00000BF481C01460129EEDB10BD00BFFEE77A
:1008B00010B5044600F06AF9FFF7F8FF10BD2DE906
:1008C000F04104460F461546D4E90101401AE1689B
:1008D0000844A84201D9284604E0D4E90101401A9D
:1008E000E16808440546D4E90110491E08406168E2
:1008F000081AA84201D9284605E0D4E90110491E8A
:1009000008406168081A0646D4E90121521E1140C8
:100910002268881832463946FFF7D0FCAA1BB9195D
:100920002068FFF7CBFCA0682844A0602846BDE8FB
:10093000F081000030B51A4C4368246819198842C8
:1009400015D04B889BB9174B1B6899420FD0164B9B
:100950001B688B4201D1144B18604B684360104BED
:100960001B68C31A0E4D4C682D682C44A3600C4CB8
:10097000836824681A19824211D053887BB90A4BC4
:100980001B68834201D1084B1A6043685360044BD3
:100990001B68D31A024D44682D682C44A36030BDF7
:1009A0001C00002020000020240000202DE9F04F32
:1009B00086B00D469C46DDE9106401960F9B04F05D
:1009C0004008B8F1000F02D0DFF8708101E0DFF8D5
:1009D0007081CDF8008004F01008B8F1000F01D04C
:1009E00024F0010404F00108B8F1000F02D04FF028
:1009F000300801E04FF02008C246002704F002084A
:100A0000B8F1000F11D0002A02DA2D2752420CE073
:100A100004F00408B8F1000F01D02B2705E004F022
:100A20000808B8F1000F00D02027002142B94FF08C
:100A3000300B8846491C0DF1080909F808B01DE083
:100A40001AE0E146B9F10A0F08D14FF00A0BB2FBE8
:100A5000FBFE0BFB1E28B2FBFBF202E002F00F08CC
:100A6000120900BFDDF8009019F808B08846491C4B
:100A70000DF1080909F808B0002AE2D1B14200DD01
:100A80000E469B1B04F01108B8F1000F10D117B1EE
:100A9000002B00DD5B1E06E0A84203D24FF02008C9
:100AA00080F80080401CB3F10008A3F10103F3DCDF
:100AB00027B1A84200D207705B1E401C04F010084A
:100AC000B8F1000F0AD104E0A84201D280F800A0DA
:100AD000401CB3F10008A3F10103F5DC06E0A842D5
:100AE00003D24FF0300880F80080401CB046761EDC
:100AF0008845F4DC08E0A84205D20DF1080818F892
:100B0000018080F80080401CB1F10008A1F10101D2
:100B100004DDDDF80480B8F1000FECD106E0A84256
:100B200003D24FF0200880F80080401CB3F1000889
:100B3000A3F10103F3DC06B0BDE8F08F61220008E9
:100B4000502200081CB514200221CB010022CDE95F
:100B50000010044904A000F08CFE0446204600F07A
:100B600081FF1CBDB10800086D61696E00000000C6
:100B700010B5044C02E020688047241D02488442DE
:100B8000F9D310BD782200087C22000810B5044C6F
:100B900002E020688047241D02488442F9D310BD3A
:100BA0007C2200088022000810B5FFF70DFB0446E8
:100BB00004480088401C00B2024908802046FFF724
:100BC00007FB10BD7400002010B5FFF7FDFA0446C6
:100BD0000C480088401E00B20A4908800846B0F957
:100BE000000000280ADC002008802046FFF7F0FA09
:100BF0000548006828B100F0F9FB02E02046FFF745
:100C0000E7FA10BD740000207800002070B505469A
:100C100005B970BD1D480068854203D31C480068B3
:100C2000854200D3F5E7A5F10C044FF0FF311948D8
:100C300000F0A0FC608818B12088B0F5F55F08D0FE
:100C400015A000F005FA23886288214619A000F05B
:100C5000FFF9002060804FF4F550208021480068A3
:100C6000844201D21F480460084960680968611A1B
:100C7000401A1D490968081A1B4908602046FFF7F9
:100C800059FE044800F059FC00BFC2E71C000020D8
:100C900020000020B0020020746F2066726565207D
:100CA0006120626164206461746120626C6F636BB7
:100CB0003A0A00006D656D3A203078253038782C7E
:100CC000207573656420666C61673A2025642C206A
:100CD0006D6167696320636F64653A203078253001
:100CE00034780A00240000202C00002000487047BF
:100CF00070090020004870470050002070B5FFF7D1
:100D000035FC0A4800684FF47A71B0FBF1F42046D4
:100D1000FFF70AFDFFF72CFFFFF7ECFF0446FFF794
:100D2000E5FF0546214600F0DBFC70BD0000002019
:100D30007047000070B505462C1D2E48006838B17C
:100D400028462C4909688847064606B970BD00BF89
:100D500029A0E16B00F07CF92BA0216A00F078F962
:100D60002DA0616A00F074F92FA0A16A00F070F95B
:100D700031A0E16A00F06CF933A0216800F068F955
:100D800035A0616800F064F937A0A16800F060F94F
:100D900039A0E16800F05CF93BA0216900F058F946
:100DA0003DA0616900F054F93FA0A16900F050F93D
:100DB00041A0E16900F04CF943A0216B00F048F933
:100DC00045A0616B00F044F947A0A16B00F040F929
:100DD000287800F0040038B100F03EFE06463146A7
:100DE00045A000F035F902E04BA000F031F900BF5A
:100DF000FEE70000A40000207073723A20307825CE
:100E00003038780A000000007230303A20307825FF
:100E10003038780A000000007230313A20307825EE
:100E20003038780A000000007230323A20307825DD
:100E30003038780A000000007230333A20307825CC
:100E40003038780A000000007230343A20307825BB
:100E50003038780A000000007230353A20307825AA
:100E60003038780A000000007230363A2030782599
:100E70003038780A000000007230373A2030782588
:100E80003038780A000000007230383A2030782577
:100E90003038780A000000007230393A2030782566
:100EA0003038780A000000007231303A203078255E
:100EB0003038780A000000007231313A203078254D
:100EC0003038780A000000007231323A203078253C
:100ED0003038780A00000000206C723A2030782503
:100EE0003038780A000000002070633A20307825FE
:100EF0003038780A0000000068617264206661750D
:100F00006C74206F6E207468726561643A2025737A
:100F10000D0A0D0A000000006861726420666175A8
:100F20006C74206F6E2068616E646C65720D0A0DC2
:100F30000A000000F0B504460D461646301D20F0AC
:100F4000070040380146002203E00C4F41F82270B0
:100F5000521C102AF9D30D624FF0000CC1F824C0C6
:100F6000C1F828C0C1F82CC0C1F830C04B638C63F5
:100F70004FF0807CC1F83CC0F0BD0000EFBEADDE9C
:100F800010B5FFF721F9044604480078401C0349D6
:100F900008702046FFF71CF910BD00001800002063
:100FA00010B5FFF711F9044604480078401E0349C4
:100FB00008702046FFF70CF910BD00001800002053
:100FC00070B504462068A0F11405284600F026FDFF
:100FD000002070BD2DE9F04105460C4690462046A4
:100FE00000F056FDB8F1000F03D0B8F1010F23D186
:100FF00005E004F11401284600F060F81CE02E68BA
:101000000FE0A6F1140794F8350097F835108842E0
:1010100006DA04F1140107F1140000F04FF802E0C1
:101020003668AE42EDD100BFAE4204D104F11401E6
:10103000284600F043F800BF00BF0020BDE8F08163
:1010400010B5044604F1140000F01AF8002010BD99
:101050000FB438B505A800907F210848009B049A7A
:1010600000F0AEFE04467F2C00D97F240348FFF732
:101070005FFE0020009038BC5DF814FB30020020B9
:1010800040600060704740600060704740600060F2
:1010900070470268516002680A60016048607047EA
:1010A0000268516002680A60016048607047026827
:1010B000516002680A6001604860704742681160D0
:1010C00042684A604160086070470146086888428B
:1010D00001D1012070470020FCE7014608688842E2
:1010E00001D1012070470020FCE7D0E900215160C8
:1010F000D0E900121160406000607047D0E9002123
:101100005160D0E90012116040600060704700003B
:101110002DE9F041054615B90020BDE8F081E81C35
:1011200020F003054E480068854201D90020F4E70D
:101130000C2D00D20C254FF0FF314A4800F01AFA6E
:101140004948006849490968461A7EE047480068EE
:1011500084196088002874D106F10C006168081AAF
:10116000A8426ED306F10C006168091A05F1180057
:10117000814230D306F10C0000EB05083B480068C3
:1011800000EB08074FF4F550388000207880606845
:101190007860BE60C4F804800120608030487968BF
:1011A00000680C30814205D03049786809680844ED
:1011B000C0F808802E48016805F10C0008442C494D
:1011C00008602C4800680968884219D228480068DD
:1011D0002849086014E0012060802449606809689B
:1011E000611A401A224909680844214908602148C7
:1011F00000680968884203D21D4800681D490860DC
:101200004FF4F550208018480068844212D107E05E
:101210001548006840681549096808441249086083
:1012200011480068408828B10F48006812490968D1
:101230008842EDD10B4800F080F904F10C006CE716
:10124000FFE70A4800683044466805480068401BCC
:10125000B0423FF67BAF034800F06FF900205CE737
:1012600028000020B0020020240000201C000020E4
:101270002C0000203000002020000020F0B50C469B
:101280000546E6B2042A15D300F0030797B90146D4
:1012900046EA062343EA034304E008C108C108C143
:1012A00008C1103A102AF8D201E008C1121F042A1E
:1012B000FBD20D4601E005F8016B171EA2F10102F9
:1012C000F9D1F0BD2DE9F04106460F46304600F059
:1012D00045F80546E868FFF71BFF044614B90020EF
:1012E000BDE8F08100212046EA68FFF7C7FF2672BB
:1012F0000020607208223946204600F0D6F9FEF739
:1013000063FF804604F10C01281DFFF7C2FE404632
:10131000FEF75EFF2046E3E770B50446002020722A
:10132000FEF752FF054604F10C00FFF7DEFE2846EB
:10133000FEF74EFF2046FFF769FC70BD70B504460E
:1013400000202072FEF740FF054604F10C00FFF775
:10135000CCFE2846FEF73CFF70BD0000024600218F
:101360000AE0074800EB01100078904203D10448DE
:1013700000EB01107047491C0429F2DB0020F9E75B
:10138000340000202DE9F04704460D469046002623
:101390002846FFF7E3FF0746FFF706FC7E6802E0FA
:1013A000A6F10C003668381D8642F9D1FFF70CFC17
:1013B00045F08000207208224146204600F075F971
:1013C000FEF702FF814604F10C01381DFFF761FEB4
:1013D0004846FEF7FDFEBDE8F0870146087A00F0BA
:1013E000800008B1012070470020FCE72DE9F041A2
:1013F000FEF7EAFE07461848008838BB1748006821
:10140000FFF7AAF9461E164850F83600A0F114045A
:1014100014480068844218D013490E7011480568BA
:1014200004601248007850B904F11C0105F11C0059
:10143000FEF7D1FE3846FEF7CBFEBDE8F08104F1A1
:101440001C0105F11C00FEF7C6FE00BF3846FEF782
:10145000BFFE00BFF1E70000740000208000002004
:10146000D0020020780000207C000020180000201E
:1014700070B50446FEF7A8FE054614F8340F20F0B8
:101480000F0040F0010020706278343C0A4B03EBFF
:10149000C20004F114014268116042684A60416070
:1014A000086000BF0549A06B09680843034908604C
:1014B0002846FEF78DFE70BDD0020020800000207F
:1014C00070B50446FEF780FE054604F11400D0E92D
:1014D00000215160D0E9001211604060006000BF3F
:1014E00094F83510094A02EBC1000168814201D12C
:1014F000012100E0002129B10548A16B0068884363
:10150000034908602846FEF763FE70BDD002002044
:10151000800000202DE9F04104460D4616461F4686
:101520002A4602212046FFF72DFF2046FFF788FDBF
:10153000A68367720020BDE8F08170B504460025DF
:10154000FEF742FE064604F11400FFF7BEFD28B97F
:1015500004F11400FFF734FD012502E0A08B401CCC
:10156000A0833046FEF734FE012D01D1FFF73EFF88
:10157000002070BD73B50546FEF726FE0646A88B13
:10158000002806DDA88B401EA8833046FEF720FE0B
:1015900028E0019828B93046FEF71AFE6FF00100E6
:1015A0007CBD00F059FA0446002020636A7A214687
:1015B00005F11400FFF70EFD0198002809DD01AACE
:1015C000002104F1440000F023FB04F1440000F08A
:1015D00063FB3046FEF7FCFDFFF708FF206B08B108
:1015E000206BDDE70020DBE708B509A0FFF730FD41
:1015F0000AA0FFF72DFD12A0032301221946009037
:1016000012A0FFF725FD19A0FFF722FD08BD00007D
:101610000A205C207C202F0A000000002D2052545C
:10162000202D2020202020546872656164204F7096
:1016300065726174696E672053797374656D0A0011
:101640004A756C203131203230323000202F207C1E
:10165000205C202020202025642E25642E25642057
:101660006275696C642025730A00000020323030F6
:1016700036202D203230313920436F7079726967FE
:1016800068742062792072742D74687265616420B8
:101690007465616D0A00000001460A4600E0521CB4
:1016A00010780028FBD1501A704770B50346A2B1DC
:1016B00018460C4600BF14F8016B00F8016B3EB9E8
:1016C00002E0002500F8015B551E2A1EF9D102E058
:1016D000551E2A1EEFD100BF00BF184670BD000086
:1016E0002DE9F04105460E46E81C20F0030726F0E0
:1016F0000308B8F1180F09D9A8F11800B84205D3AA
:10170000A8EB070018381E49086006E03246294653
:101710001CA0FFF79DFCBDE8F08129480760046824
:101720004FF4F5502080164800680C3060600020AF
:10173000A060608022496068096808442149086007
:101740004FF4F5500968088001201E490968488057
:101750000B4800680C301B4909684860084800685D
:101760000C301849096888600023012216A1184826
:10177000FFF7D0FE124800681649086000BFCAE7AC
:10178000280000206D656D20696E69742C206572DB
:10179000726F7220626567696E206164647265733E
:1017A0007320307825782C20616E6420656E64206B
:1017B0006164647265737320307825780A000000D4
:1017C0001C000020200000206865617000000000FF
:1017D000B00200202400002010B500200B49088032
:1017E000002405E00A4901EBC400FFF74CFC641C2F
:1017F000082CF7DB0720074908700020064908601D
:10180000064908600648FFF73EFC10BD7400002042
:10181000D00200207C000020780000208000002002
:101820008400002070B508480068FEF795FF451E4B
:10183000064850F83500A0F114040548046004F18E
:101840001C00FEF7F6FC70BD80000020D0020020D6
:101850007800002010B5002405E0044901EBC40025
:10186000FFF714FC641C002CF7D010BD8C00002086
:1018700070472DE9FF5F06460F4690461D46DDE99D
:101880000EAB31460120FFF71DFD8146B9F1000F77
:1018900003D1002004B0BDE8F09F2846FFF738FCD4
:1018A000044624B94846FFF737FD0020F2E74346D7
:1018B0003A46314648468DE8300CFEF77DFF4846F3
:1018C000E8E7000070B512480468FEF77DFC0546A5
:1018D0002046FFF7F5FD042084F8340004F14400AD
:1018E00000F0B2F92046FFF778FD012805D1206FFE
:1018F00018B92046FFF722FD04E004F11401054861
:10190000FFF7CEFB2846FEF763FCFFF76FFD70BDC7
:10191000780000208400002001E000F001F8FCE7DE
:1019200070B53AE0FEF750FC0546FEF73BFF30B3DA
:101930001D480068A0F1140404F11400D0E900214E
:101940005160D0E9001211604060006000BFFFF7F5
:101950002BF9206F10B12046216F88472046FFF7F2
:101960003CFD012808D12046FFF7E8FCFFF72CF9E1
:101970002846FEF72DFC70BDFFF726F903E0284648
:10198000FEF726FCF7E72846FEF722FCA06AFFF7E1
:101990003DF92046FFF7C0FC00BFFEF703FF00281B
:1019A000C0D100BFE7E70000840000201FB5202061
:1019B0000721C200074BCDE90032CDE90210002318
:1019C000054A06A1074800F00FF8064800F04AF85B
:1019D0001FBD000030010020191900087469646CF3
:1019E00065000000B80000202DE9FF5F05460C46A9
:1019F00016461F46DDE910ABDDE90E8922460121BE
:101A00002846FFF7BFFC3B463246214628468DE874
:101A1000000FFEF7D1FE04B0BDE8F09F70B504469C
:101A200094F8340000F00F00022802D04FF0FF308D
:101A300070BDFEF7C9FB054604F11400FFF75EFB1D
:101A400004F1440000F0A4F92846FEF7C1FB20464B
:101A5000FFF70EFD0020EBE701480068704700002B
:101A60007800002010B504463434A07860706178A6
:101A7000012088406060022004F834092046FFF706
:101A8000CDFFFFF7E9FF08B1FFF7B0FC002010BD64
:101A900070B5044694F8340000F00F00012802D01D
:101AA0004FF0FF3070BDFEF78FFB054694F8340011
:101AB00020F00F0040F0020084F834002046FFF7C9
:101AC000FFFC04F1440000F063F92846FEF780FBB8
:101AD0000020E7E770B5044625466FF00100286353
:101AE00005F11400FFF70AFB2846FFF7C1FCFFF7DA
:101AF0007DFC70BD70B5FEF767FB054614480468B1
:101B000094F8340000F00F0001281CD1D4E905102E
:101B1000814218D004F11400FFF7F0FA94F8352050
:101B20000C4B03EBC20004F11401426811604268DF
:101B30004A604160086000BF2846FEF749FBFFF796
:101B400055FC002070BD2846FEF742FB0020F9E757
:101B500078000020D0020020014800687047000093
:101B60001400002010B50A480068401C08490860AD
:101B7000FFF772FF0446206C401E2064206C18B9E9
:101B8000E06B2064FFF7B6FF00F004F810BD000022
:101B90001400002070B5FFF7DFFF0546FEF714FBC9
:101BA000064628E019480068A0F11404A06A281A23
:101BB0006FF0004188421DD22046FEF760FED4E956
:101BC00007108847FFF7C8FF0546607A00F002005B
:101BD00058B1607A00F0010038B1607A20F001005D
:101BE0006072204600F058F805E0607A20F00100AD
:101BF000607200E004E00548FFF76FFA0028D1D0DA
:101C000000BF3046FEF7E4FA70BD00008C000020F3
:101C1000034649B1012904D0022908D0032910D173
:101C20000AE0586A10600CE01068586209E0587ABF
:101C300020F00200587204E0587A40F00200587216
:101C400000BF00BF0020704770B50446FEF7BCFA25
:101C500005462046FEF713FE2846FEF7B9FA204651
:101C6000FFF76CFB002070BD2DE9F84307460C46DA
:101C700015461E46DDE9088922460A213846FFF747
:101C800081FB4346324629463846CDF80090FEF7A0
:101C9000D5FDBDE8F88300002DE9F8430546FEF7C1
:101CA00093FA80462846FEF7EAFD687A20F00100A4
:101CB00068724046FEF78CFAFFF74EFF696A0844E7
:101CC000A862FEF781FA80462F4F009700242AE091
:101CD00019E05DF824201168142202EBC402881A6E
:101CE000826AAB6AD21A00D108E0826AAB6AD21A61
:101CF0006FF000439A4200D20CE000BF5DF8240070
:101D000000684DF824005DF8240007EBC401496821
:101D10008842DED100BF2CB15DF824000830611C80
:101D20004DF82100641C002CD2D018480068401CDB
:101D3000164908600846066805F114010098FFF787
:101D4000B6F9022412E006F0030060B9C4F1010301
:101D500005F1140202EBC301C4F101025DF8220097
:101D6000FFF7A5F900E003E0B608641C012CEAD9EE
:101D700000BF687A40F0010068724046FEF728FA1A
:101D80000020BDE8F88300008C00002094000020B3
:101D900070B50446607A00F0010010B94FF0FF30D2
:101DA00070BDFEF711FA05462046FEF768FD28468D
:101DB000FEF70EFA607A20F0010060720020EFE773
:101DC0002DE9FF4F89B0804644460A9808EB00068B
:101DD000464504D24FF0FF36A6EB08000A906FE1AB
:101DE0000B980078252806D0B44202D20B980078D0
:101DF0002070641C61E1002526E00B98401C0B90CC
:101E00000B9800782D2802D145F010051CE00B98A6
:101E100000782B2802D145F0040515E00B980078D6
:101E2000202802D145F008050EE00B980078232801
:101E300002D145F0200507E00B980078302802D148
:101E400045F0010500E000E0D7E700BF4FF0FF37A5
:101E50000B98007830380A2804D20BA800F065F9F6
:101E600007460EE00B9800782A280AD10B98401CF0
:101E70000B900C9880C80C90002F02DA7F4245F03E
:101E800010054FF0FF390B9800782E281CD10B98C5
:101E9000401C0B900B98007830380A2804D20BA80D
:101EA00000F043F981460AE00B9800782A2806D111
:101EB0000B98401C0B900C9850F8049B0C90B9F1B7
:101EC000000F01DA4FF00009002004900B98007811
:101ED000682803D00B9800786C2805D10B980078FF
:101EE00004900B98401C0B900A2005900B980078EA
:101EF0006F2875D00CDC632813D004DC252870D043
:101F000058286FD18DE064286DD06928F9D18FE011
:101F100070286AD0732825D0752878D07828F0D119
:101F200082E005F0100040B904E0B44201D2202064
:101F30002070641C781E071EF7DC0C9810F8041B38
:101F40000C90C8B20790B44201D207982070641C6C
:101F500004E0B44201D220202070641C781E071EC9
:101F6000F7DCAAE00C98006806900C98001D0C9015
:101F7000069808B95CA006900698FFF78DFB83468B
:101F8000B9F1000F02DDCB4500DDCB4605F01000B6
:101F900048B904E0B44201D220202070641C3846C5
:101FA0007F1E5845F6DC002008900BE0B44202D2B8
:101FB000069800782070641C0698401C06900898CB
:101FC000401C089008985845F0DB04E0B44201D268
:101FD00020202070641C38467F1E5845F6DC6CE0DB
:101FE0001CE015E028E022E0FFE7781C10B9082784
:101FF00045F00105CDE9007902950C9804C810233D
:1020000031460C902046FEF7D1FC044655E012E024
:10201000B44201D225202070641C4EE008200590B7
:102020001DE045F0400500BF1020059017E000BFFF
:1020300045F0020500BF12E0B44201D22520207015
:10204000641C0B98007830B1B44202D20B9800782F
:102050002070641C02E00B98401E0B902DE000BF26
:1020600004986C2807D10C9850F804AB0C9005F03C
:102070000200B8B116E0049868280BD10C9830F82B
:10208000041B1FFA81FA0C9005F0020050B10FFA00
:102090008AFA07E00C9850F804AB0C9005F00200A7
:1020A00000B100BFCDE90079029552463146204685
:1020B000059BFEF77BFC044600BF0B98401C0B9071
:1020C0000B98007800287FF48BAE0A9838B1B442A0
:1020D00002D20020207002E0002006F8010CA4EBE0
:1020E00008000DB0BDE8F08F284E554C4C2900007B
:1020F0000020704700207047002070470020704784
:1021000010B5FEF761F8FEF7F9FDFFF76DFAFFF77E
:10211000A1FBFFF761FBFEF715FDFFF7A9FBFFF73A
:1021200045FCFFF77FFB002010BD0146002009E0C1
:102130000B685A1C0A601A7800EB800302EB43021A
:10214000A2F130000A681278303A0A2AF0D37047B8
:102150000000010002000100030001000200010074
:102160000400010002000100030001000200010060
:10217000050001000200010003000100020001004F
:102180000400010002000100030001000200010040
:10219000060001000200010003000100020001002E
:1021A0000400010002000100030001000200010020
:1021B000050001000200010003000100020001000F
:1021C0000400010002000100030001000200010000
:1021D00007000100020001000300010002000100ED
:1021E00004000100020001000300010002000100E0
:1021F00005000100020001000300010002000100CF
:1022000004000100020001000300010002000100BF
:1022100006000100020001000300010002000100AD
:10222000040001000200010003000100020001009F
:10223000050001000200010003000100020001008E
:10224000040001000200010003000100020001007F
:10225000303132333435363738396162636465661C
:102260000030313233343536373839414243444512
:1022700046000000FD200008F5200008F1200008BD
:10228000F9200008A422000800000020A800000097
:10229000280100084C230008A8000020C8080000FE
:1022A0004401000800A24A040000000000000000F1
:1022B00001020304060708090000000000000000F6
:1022C000000000000000000000000000000000000E
:1022D00000000000000000000100000038000020A5
:1022E00038000020780000000200000048000020B4
:1022F00048000020200000000500000058000020D9
:1023000058000020300000000A0000006800002093
:10231000680000202C000000000000000000000009
:1023200000000000000000000000000000000000AD
:10233000000000000000000000000000000000009D
:0C23400000000000000000000000000091
:04000005080000ED02
:00000001FF
